:020000040800F2
:10000000E805002005010008A7170008CD15000825
:10001000A5170008C1010008ED1D00080000000040
:10002000000000000000000000000000AB17000806
:10003000D902000800000000A917000801190008F3
:100040001F0100081F0100081F0100081F01000810
:100050001F0100081F0100081F0100081F01000800
:100060001F0100081F0100081F0100081F010008F0
:100070001F0100081F0100081F0100081F010008E0
:100080001F0100081F0100081F0100081F010008D0
:100090001F0100081F0100081F0100081F010008C0
:1000A0001F0100081F0100081F0100081F010008B0
:1000B0001F0100081F0100081F0100081F010008A0
:1000C0001F0100081F0100081F0100081F01000890
:1000D0001F010008D51D00081F010008E11D0008D0
:1000E0001F0100081F0100081F010008DFF810D0E1
:1000F00000F054F80048004721200008AFF30080CA
:10010000E80500200648804706480047FEE7FEE76E
:10011000FEE7FEE7FEE7FEE7FEE7FEE7FEE7FEE7B7
:1001200053190008ED00000840EA01039B0703D0C3
:1001300009E008C9121F08C0042AFAD203E011F826
:10014000013B00F8013B521EF9D27047D2B201E0E8
:1001500000F8012B491EFBD270470022F6E710B5CC
:1001600013460A4604461946FFF7F0FF204610BD25
:1001700030B50B46014600202022012409E021FA77
:1001800002F59D4205D303FA02F5491B04FA02F574
:100190002844151EA2F10102F1DC30BD064C074DCA
:1001A00006E0E06840F0010394E807009847103447
:1001B000AC42F6D3FFF79EFF80200008A020000885
:1001C000FEE7000010B59AB029A211AB07CA83E878
:1001D00007002AA12BA2D1E90001CDE917010FCA1E
:1001E00009AC84E80F0024222AA16846FFF79CFF8F
:1001F00031A214AB07CA83E8070032A00DAC0FC8C8
:1002000084E80F00082211A9324801F0B0F94FF438
:100210007A74204600F0D2F8042217A92D4801F084
:10022000A6F9204600F0CAF80D2209A9294801F0D4
:100230009EF9204600F0C2F821226946254801F0C7
:1002400096F942F2107000F0B9F80A2214A9214878
:1002500001F08DF9204600F0B1F80D220DA91D48DE
:1002600001F085F9204600F0A9F81AB010BD000091
:1002700041542B5253540D0A0000000041540D0A02
:100280000000000041542B43574D4F44453D310D74
:100290000A00000041542B43574A41503D22475A1F
:1002A00047442D4E6B4869222C223936373839376E
:1002B0003833220D0A00000041542B434946535263
:1002C0000D0A000041542B4349504D55583D300D07
:1002D0000A000000A40100207047704710B590F894
:1002E00021100022022905D00421816380F82020FA
:1002F000012010BD01680B6823F00E030B6001683C
:100300000B6823F001030B6090F84030C46B0121AF
:1003100001FA03F3636080F8211080F82020104672
:1003200010BD000010B590F821100024022903D060
:100330000421816301243DE001680A6822F00E0275
:100340000A6001680A6822F001020A601A4A01681C
:10035000914201D1012121E0174A1432914201D189
:1003600010211BE0144A2832914201D1891515E071
:10037000114A3C32914201D189140FE00E4A5032A9
:10038000914202D14FF4803108E00B4A643291422D
:1003900002D14FF4801101E04FF08071064A083A13
:1003A0005160012180F82110002180F82010416B5C
:1003B00001B18847204610BD0800024070B50446D0
:1003C00000F004F90546601C02D00448007804449B
:1003D00000F0FCF8401BA042FAD370BD04000020DE
:1003E0002DE9F84FDFF8B891002409F1040A0AF169
:1003F000040B23460F270BF1040EC9E00125A5408D
:100400002A40AA427DD1674ED1F804C0ACEB060861
:10041000B44532D014DCBCF1030F3AD009DCBCF196
:10042000000F2AD0BCF1010F1CD0BCF1020F31D15A
:100430001DE0BCF1110F17D0BCF1120F2AD119E049
:10044000B8F5881F19D006DCB8F5803F15D0B8F58F
:10045000801F1FD111E0B8F5001F0ED0B8F5041FA2
:1004600018D10AE0CB6815E0CB681B1D12E0CB6801
:1004700008330FE0CB680C330CE08B682BB1012BF9
:100480004FF0080303D0456104E0042302E0056156
:1004900000E00023FF2A01D8064601E000F104062F
:1004A0004FEA840501D9A5F12005D6F8008007FAA6
:1004B00005FC28EA0C0803FA05F548EA0508C6F821
:1004C00000804D68ED0062D5374DAE6946F00106FB
:1004D000AE61AD6924F0030605F001050095334DCA
:1004E00006EB050CDCF80850A607360F07FA06F8ED
:1004F00025EA0805DFF8B880404503D14FF0000831
:1005000017E044E0DFF8AC80404502D14FF001082D
:100510000FE0DFF8A480404502D14FF0020808E068
:10052000DFF89880404502D14FF0030801E04FF01A
:10053000040808FA06F848EA0508CCF808804D686F
:10054000D9F80060ED034D4601D5164300E096430F
:100550002E604D68DAF80060AD03554601D51643AC
:1005600000E096432E604D68DBF80060ED025D46CA
:1005700001D5164300E096432E604D68DEF800601A
:10058000AD02754601D5164300E096432E60641C0B
:100590000D682A46E5407FF431AFBDE8F88F0000D2
:1005A0000004014000001110001002400000014052
:1005B00000080140000C01400010014000140140FF
:1005C0000AB1016170470904FBE700000148806837
:1005D000704700000400002002488168027811443E
:1005E0008160704704000020074810B5016841F0A1
:1005F00010010160032000F075F8002000F006F8FB
:1006000000F024F8002010BD0020024070B50D4D10
:1006100004464FF47A712878B1FBF0F00A49096872
:10062000B1FBF0F000F0ECFA48B9102C07D2002230
:100630002146501E00F036F800206C6070BD01208D
:1006400070BD000004000020100000200C4808B518
:10065000816941F001018161816901F0010100912D
:10066000C16941F08051C161C06900F080500090C3
:100670000448416821F0E06141F00071416008BD2B
:100680000010024000000140002809DB00F01F02BA
:10069000012191404009800000F1E020C0F80011E4
:1006A00070470000F0B40E4B1B680C46C3F30223E6
:1006B000C3F10705042D00D90425191D072901D20E
:1006C000002300E0DB1E012606FA05F1491E214049
:1006D00099409E40761E16403143F0BC01F098BB15
:1006E0000CED00E0064900F0070208684FF6FF0332
:1006F000184040EA0220034A104308607047000097
:100700000CED00E00000FA052DE9F0470F4605006A
:1007100061D0434E306800F00700B84209D230681B
:1007200020F0070038433060306800F00700B8421E
:1007300051D128683B4C810712D5400703D560682A
:1007400040F4E06060602878000703D5606840F4FA
:10075000605060606068A96820F0F0000843606045
:100760002878C00728D06868012810D0216802289E
:1007700010D0890700292EDA616821F003010143B6
:100780006160FFF723FF804641F288390DE0216860
:100790008903EFE78901EDE7FFF718FFA0EB0801F8
:1007A000494502D90320BDE8F0876068696800F018
:1007B0000C00B0EB810FEFD1306800F00700B842B9
:1007C0000BD9306820F0070038433060306800F003
:1007D0000700B84201D00120E5E72878400705D599
:1007E0006068E96820F4E0600843606028780007EA
:1007F00006D56068296920F4605040EAC100606055
:1008000000F038F86168084AC1F30311515CC84030
:100810000649086006480068FFF7F8FE0020C2E7B6
:100820000020024000100240682000081000002054
:10083000080000200448054900684968044AC1F3DB
:100840000221515CC8407047100000200010024097
:10085000782000080448054900684968044AC1F343
:10086000C221515CC84070471000002000100240B7
:100870007820000812A185B00FC98DE80F0014A0E0
:10088000144A006804905168134801F00C03042BCB
:1008900010D0082B0ED1C1F38343C9031DF8030008
:1008A0000AD5516804AAC1F34041515C0A4A504339
:1008B000B0FBF1F005B0704708494843FAE7000083
:1008C00002030405060708090A0B0C0D0E0F101091
:1008D000010200000010024000127A0000093D00F1
:1008E0002DE9F84F040070D02078C04DC00749D0E2
:1008F0006868C0F38100012807D06868C0F38100F0
:10090000022809D16868C00306D52868800339D554
:1009100060680028E7D035E06068B0F5803F0BD014
:1009200010B1B0F5A02F11D0286820F480302860D5
:10093000286820F4802002E0286840F48030286095
:10094000606890B1FFF742FE06460AE0286840F46E
:1009500080202860F0E700BFFFF738FE801B642886
:1009600073D828688003F7D50CE0FFF72FFE064602
:1009700005E000BFFFF72AFE801B6428F0D8286836
:100980008003F7D420789A4E80074FF001094FF08A
:10099000000839D5686810F00C0F07D06868C0F3FC
:1009A0008100022809D16868C00306D4286880073E
:1009B00014D52069012808D110E02069B0B1C6F82B
:1009C0000090FFF703FE074605E00AE1FFF7FEFD92
:1009D000C01B0228C4D828688007F7D52868616939
:1009E00020F0F80040EAC10028600DE0C6F8008061
:1009F000FFF7ECFD074604E0FFF7E8FDC01B022807
:100A000023D828688007F7D4207800072CD57948A8
:100A1000A169D9B1C0F80090FFF7D8FD074604E0FE
:100A2000FFF7D4FDC01B02280FD8686A8007F7D5EE
:100A300071484FF4FA510068B0FBF1F0009000BF2C
:100A40000098411E0091FAD20EE080E0C0F80080CC
:100A5000FFF7BCFD074604E0FFF7B8FDC01B022806
:100A600075D8686A8007F7D42078400760D5E869B0
:100A70000027C00008D4E86940F08050E861E869C8
:100A8000012700F0805000905C480168C90513D42C
:100A90000168834641F480710160FFF797FD82464B
:100AA00006E000BFFFF792FDA0EB0A0064284ED8D5
:100AB000DBF80000C005F5D5E06801280AD008B1D0
:100AC000052813D0286A20F001002862286A20F047
:100AD000040002E0286A40F001002862E06841F268
:100AE000883B98B1FFF772FD82460BE0286A40F020
:100AF00004002862EEE700BFFFF768FDA0EB0A01E3
:100B000059455AD8286A8007F6D50CE0FFF75EFDF4
:100B1000824605E0FFF75AFDA0EB0A0159454CD883
:100B2000286A8007F6D41FB1E86920F08050E86198
:100B3000E06988B36968C1F38101022944D00228C1
:100B4000C6F8608004D0FFF741FD044638E034E089
:100B5000FFF73CFD074604E0FFF738FDC01B022805
:100B60002BD828688001F7D4206AB0F5803F05D1E2
:100B70006868A16820F4003008436860D4E908017F
:100B80000843696821F4741108436860C6F86090EE
:100B9000FFF71CFD044606E025E000BFFFF716FD49
:100BA000001B022809D828688001F7D51BE000BF88
:100BB000FFF70CFD001B022802D90320BDE8F88FC7
:100BC00028688001F4D40EE00128F7D06868226A12
:100BD00000F48031914204D1616A00F470108842BF
:100BE00001D00120EAE70020E8E700000010024001
:100BF0000000424280044242100000200070004089
:100C000010B5401EB0F1807F01D3012010BD4FF020
:100C1000E02460610F21601701F0FAF80020A06164
:100C200007202061002010BD70B590F83C20012AFB
:100C300026D0012480F83C40022280F83D20036841
:100C40005A689D6822F070060A6832435A600D4B5C
:100C500002689A4208D0B2F1804F05D00A4B9A42FE
:100C600002D00A4B9A4204D1496825F08003194307
:100C7000916080F83D40002180F83C10084670BD2E
:100C8000022070BD002C014000040040000800401C
:100C900010B5040003D094F83D0010B107E0012026
:100CA00010BD002084F83C00204600F01FF8022010
:100CB00084F83D00211D206800F04CFE012084F8DE
:100CC000460084F83E0084F83F0084F8400084F831
:100CD000410084F8420084F8430084F8440084F81A
:100CE000450084F83D00002010BD000008B50068F4
:100CF000B0F1804F08D10548C16941F00101C161DF
:100D0000C06900F00100009008BD00000010024022
:100D100070B5044690F83C00012817D0012584F8EE
:100D20003C50022084F83D002068826822F077025F
:100D300022F47F4282600868502830D00DDC2028E1
:100D40004DD005DC98B310283BD148E0022070BD9F
:100D5000302844D0402834D139E0602828D0702889
:100D600006D0B0F5805F2CD0B0F5005F29D10AE045
:100D7000CB68D1E90121206800F02FFE206881684E
:100D800041F0770109E0CB68D1E90121206800F04A
:100D900024FE2068816841F48041816011E0CA68C6
:100DA0004968206800F0CEFE5021206807E016E078
:100DB000CA684968206800F0D6FE6021206800F00B
:100DC00016FE84F83D50002084F83C0070BDCA68CF
:100DD0004968206800F0B6FE40212068EFE72268ED
:100DE00001461046EBE7000000B585B000210091F8
:100DF0000191029103910068B0F1804F11D10A482E
:100E0000816941F0040181618069694600F0040054
:100E10000490032000900220019003900348FFF704
:100E2000DFFA05B000BD00000010024000080140DC
:100E300070B5044690F83C000D4601280AD0012008
:100E400084F83C0042B1042A18D0082A2AD00C2A7F
:100E50004DD139E0022070BD206800F0D1FD20683E
:100E6000816941F0080181612068816921F00401F4
:100E70008161206881692A69114311E0206800F0CE
:100E8000E7FD2068816941F4006181612068816922
:100E900021F480618161206881692A6941EA022127
:100EA000816124E0206800F0FFFD2068C16941F005
:100EB0000801C1612068C16921F00401C161206895
:100EC000C1692A69114311E0206800F019FE206809
:100ED000C16941F40061C1612068C16921F4806188
:100EE000C1612068C1692A6941EA0221C16100200B
:100EF00084F83C0070BD10B5040003D094F83D00A8
:100F000010B107E0012010BD002084F83C0020460D
:100F100000F01EF8022084F83D00211D206800F03A
:100F200019FD012084F8460084F83E0084F83F0053
:100F300084F8400084F8410084F8420084F84300BB
:100F400084F8440084F8450084F83D00002010BD7A
:100F50007047000010B50446022249B104290ED0A2
:100F6000082913D094F84100012816D0012010BDA3
:100F700094F83E000128F9D184F83E200FE094F85F
:100F80003F000128F2D184F83F2008E094F84000A7
:100F90000128EBD184F8402001E084F841200122AF
:100FA000206800F00DFD0F492068884203D1426C93
:100FB00042F4004242642068884208D0B0F1804F79
:100FC00005D00949884202D00849884204D1816885
:100FD00001F00701062903D0016841F00101016019
:100FE000002010BD002C014000040040000800401B
:100FF00070477047F8B5026804461068D1685369B5
:1010000010F00F0F4FF0000553D003F0010601F46C
:10101000907737435FD0C20705D0CA0503D5226C4D
:1010200042F001022264420705D5DA0703D0226CA0
:1010300042F002022264820705D5DA0703D0226C4F
:1010400042F004022264020707D501F02002324375
:1010500003D0226C42F008022264226C002A34D0B1
:10106000800604D5880602D5204600F0AEFD206833
:101070004069216CC0F38010090700D430B32046CA
:1010800000F08BFD2068416949061BD5416921F0BC
:1010900040014161A06BA8B158494163A06BFFF7C3
:1010A00041F9002811D0A06B416B01B0BDE8F040C0
:1010B000084783060FD58B060DD52046BDE8F840BE
:1010C00000F083BD2046FFF794FFF8BD2046FFF7F0
:1010D00090FF2564F8BD266B2023012E52D1C60651
:1010E00050D5CE064ED51068506800905069400625
:1010F0002AD5A16B086840680004000CEAD0A68DD0
:101100008642E7D9E0858869202818D0D06820F485
:101110008070D0602068416921F001014161206840
:10112000416921F04001416184F83E302563206827
:10113000C16821F01001C160A06BFFF7CFF8A08D4E
:10114000E18D401A81B219E0A08DE18D401A81B283
:10115000E08D0028BED00029BCD0D06820F490706B
:10116000D0602068426922F00102426184F83E307A
:1011700025632068C26822F01002C2602046FFF793
:1011800037FFF8BD05062BD50D0629D594F83D008F
:101190002128F6D1A068B0F5805F01D12069B0B1F7
:1011A000206A411C2162216800784860E08C401E62
:1011B0000004000CE084E4D12068C16821F08001C3
:1011C000C1602068C16841F04001C160F8BD206A7B
:1011D0000088C0F308005060206A801C2062E5E7A8
:1011E0004006F3D54806F1D5D168204621F04001EC
:1011F000D16084F83D3000F0D9F9F8BD8B1B0008B0
:1012000070B5040004D094F83D00002510B106E04C
:10121000012070BD84F83C50204600F023F82420C3
:1012200084F83D002068C16821F40051C160204667
:1012300000F026FD2068016921F4904101612068D9
:10124000416921F02A0141612068C16841F40051DF
:10125000C1602564202084F83D0084F83E00002011
:1012600070BD000070B586B0002400940194029413
:10127000039403682E482D4E022103220515B34224
:1012800026D1836943F480438361836903F48043F7
:101290000493836943F0040383618069254E00F061
:1012A000040004900802CDE900010392694630462B
:1012B000FFF796F8CDE90054694630460294FFF7EF
:1012C0008FF8002211462520FFF7ECF9252028E0B1
:1012D000194EB34227D1C36943F48023C361C36964
:1012E00003F480230493836943F0080383618069D6
:1012F000CDE9005100F00800CDE903200F4D69460B
:101300002846FFF76DF8E814CDE900046946284641
:101310000294FFF765F8002211462720FFF7C2F973
:101320002720FFF7B1F906B070BD0000003801407A
:10133000001002400008014000480040000C01403D
:101340002DE9F84F044690F83E009A4616460D46A1
:10135000202853D1FDB1F6B194F83C0001284DD0BE
:10136000012084F83C0000272764222084F83E00F6
:101370002763FFF72BF9A6858146E685A0684FF421
:101380008058404501D1206940B12E465FF00005EC
:1013900084F83C7027E00120BDE8F88F0026F7E7CD
:1013A0004B46002220212046CDF800A000F0DFFCB3
:1013B00008B10320F0E726B1A06840451BD038B142
:1013C00008E020684068C0F3080025F8020B07E039
:1013D000206980B12068406800F07F0006F8010BAA
:1013E000E08D401EE085E08D0028D9D1202084F8D2
:1013F0003E000020D0E720684068EFE70220CBE7FE
:1014000090F83E30202B0ED159B152B190F83C30BB
:10141000012B08D0012380F83C300023036300F047
:101420008BBC0120704702207047000070B5006837
:10143000184988422DD1184C00252078401CC1B293
:1014400016482170627808440A2A00F8012C17D146
:1014500010F8022C0D2A13D110F8032C4B2A0FD1AF
:1014600010F8040C4F280BD10DA000F0C1FC0B4963
:1014700010A000F0BDFCFF210848FEF76EFE2570AD
:101480006570BDE8704004490122491C0A48FFF715
:10149000B7BF70BD004800400000002018000020C9
:1014A00052656365646174616C656E74683A256445
:1014B0000A00000025730A00A40100202DE9F8436A
:1014C000044690F83D001F4616460D4620284CD194
:1014D000C5B1BEB194F83C00012846D0012084F883
:1014E0003C004FF00008C4F84080212084F83D0003
:1014F000FFF76CF8A6848146E684A068B0F5805FAB
:1015000003D004E00120BDE8F883206928B12E460D
:101510005FF0000584F83C800EE00026FAE78021A9
:10152000204600F024FCA0B9AEB116F8010B2168EA
:101530004860E08C401EE084E08C4B464FF0000297
:1015400000970028EBD14FF04001204600F00FFC3F
:1015500030B10320D7E735F8020BC0F30800E6E707
:10156000202084F83D000020CDE70220CBE790F852
:101570003D30202B18D1A9B1A2B190F83C30012BFD
:1015800012D001628284C28400210164212280F889
:101590003D2080F83C100068C16841F08001C160C6
:1015A00000207047012070470220704700680449FE
:1015B000884204D1012203490348FFF721BF704745
:1015C0000048004001000020A4010020FEE70000C8
:1015D0002DE9F04186B0002428480094019402943B
:1015E0000394816941F010018161816901F010016A
:1015F0000491816941F020018161816901F020013C
:101600000491816941F004018161816901F0040163
:101610000491816941F0080181618069184F00F0EF
:1016200008004FF400550490002229463846FEF782
:10163000C7FFDFF8508000223C214046FEF7C0FF84
:101640000095022601250396CDE9015469463846E6
:10165000FEF7C6FE3C20CDE90005CDE9024669460D
:101660004046FEF7BDFE7820CDE9000469460648F5
:101670000294FEF7B5FE06B0BDE8F081001002400E
:101680000010014000080140000C014010B58EB070
:1016900000240794089409940A940B941C2168462A
:1016A0000C94FEF75AFD22484FF08041016047211B
:1016B000C0E9011440F2E731C0E903148461FFF787
:1016C000E7FA08B1FEF709FE4FF48050079007A92A
:1016D0001748FFF71DFB08B1FEF7FFFD1448FFF7A1
:1016E0000AFC08B1FEF7F9FD0B940BA910480C9405
:1016F000FFF79AFA08B1FEF7F0FD6020CDE900048B
:101700000294002269460A480494FFF791FB08B14D
:10171000FEF7E3FD042269460548FFF789FB08B19F
:10172000FEF7DBFD0248FFF75FFB0EB010BD0000C7
:10173000180100200C4810B50A4901604FF4E1314E
:101740004160002181600C22C160C0E90412816106
:10175000C161FFF755FD002803D0BDE81040FEF73A
:10176000BCBD10BD00380140600100200C4810B520
:101770000A4901604FF4E1314160002181600C228F
:10178000C160C0E904128161C161FFF739FD002821
:1017900003D0BDE81040FEF7A0BD10BD00480040DA
:1017A000A4010020FEE770477047704710B532A0D3
:1017B000A0B00FC80AAC84E80F0033A10EAC0FC96B
:1017C00084E80F0034A112AC0FC984E80F0028226E
:1017D00035A16846FEF7A8FC3DA016AC00681E9037
:1017E0003CA00FC884E80F003EA01AAC0FC884E8E4
:1017F0000F00252269463F48FFF7B9FE4FF47A747F
:101800002046FEF7DBFD0E220AA93A48FFF7AFFE9D
:101810002046FEF7D3FD0C2212A93648FFF7A7FE9B
:101820002046FEF7CBFD0E221AA93248FFF79FFE95
:101830002046FEF7C3FD304B012230492D48FFF70B
:101840007FFD03221EA92B48FFF791FE2046FEF7DD
:10185000B5FD0E220EA92748FFF789FE2046FEF7A8
:10186000ADFD0D2216A92348FFF781FE2046FEF7A5
:10187000A5FD20B010BD000041542B4349504D4FF1
:1018800044453D310D0A000041542B4349504D4F12
:1018900044453D300D0A000041542B434950534507
:1018A0004E440D0A0000000041542B43495053544C
:1018B0004152543D22544350222C223139322E3190
:1018C00036382E312E33222C3530320D0A000000EE
:1018D0002B2B2B0041542B434950434C4F53450D68
:1018E0000A00000068656C6C6F2073657276657223
:1018F00021000000A4010020A086010001000020BA
:10190000FEF76ABE30B58FB028216846FEF725FC89
:1019100014210AA8FEF721FC01210804CDE90010DA
:101920000024029402250491CDE907504FF4E01001
:1019300009906846FEF7D4FF0F20CDE90A0568023A
:10194000CDE90C4002210AA80E94FEF7DDFE0FB08F
:1019500030BD7047F0B50268164B174C174D4FF06D
:101960008047984205D0B84203D0A04201D0A84297
:1019700003D122F070064A683243984205D0B8423B
:1019800003D0A04201D0A84203D122F44074CA6817
:1019900022434C6922F08002224302608A68C262BC
:1019A0000A688262984201D109690163012141619B
:1019B000F0BD0000002C0140000400400008004081
:1019C00010B501F01F030121046A99408C430462A1
:1019D000016A9A401143016210BD10B5846842EA61
:1019E000032224F47F440A432243826010BD8268AC
:1019F00022F070020A4342F0070181607047000044
:101A000030B5026A22F001020262026A4368846908
:101A100024F073050C682C4322F002058A682A43DF
:101A20000A4DA8420BD122F00805CA6823F440737E
:101A30002A434D6922F004021D438B692B43436006
:101A4000846149684163026230BD0000002C01409E
:101A500030B5026A22F010020262026A43688469A9
:101A60000D6824F4E64444EA05248D6822F020023F
:101A700042EA05120B4DA8420ED1CD6822F0800239
:101A800042EA05124D6923F4406343EA85038D69F8
:101A900022F0400243EA8503436084614968816320
:101AA000026230BD002C014030B5026A22F480721F
:101AB0000262036A4268C46923F4007324F0730568
:101AC0000C682C438D6843EA05230C4DA8420ED1C7
:101AD000CD6823F4006343EA05234D6922F44052A4
:101AE00042EA05128D6923F4806342EA05124260DE
:101AF000C4614968C163036230BD0000002C01402D
:101B000030B5026A22F480520262046A4268C369F4
:101B10000D6823F4E64343EA05238D6824F400545A
:101B200044EA0534064DA84204D14D6922F48042AE
:101B300042EA85124260C36149680164046230BDB3
:101B4000002C014010B5036A046A24F00104046209
:101B5000846924F0F00444EA021423F00A020A43E0
:101B60008461026210BD10B5036A23F010030362A2
:101B70008369046A23F4704343EA023224F0A00329
:101B800043EA01118261016210BD10B5406A002173
:101B9000C185C184FFF72DFA10BD0168CA6822F41F
:101BA0009072CA6001684A6922F001024A61016BC1
:101BB000012904D10168CA6822F01002CA602021FC
:101BC00080F83E1000210163704708B590F83E1080
:101BD000222901D0022008BD82684FF480539A4226
:101BE00001D1016921B1816A9A421BD04AB10AE050
:101BF0000268816A5268C2F308020A80816A891CFD
:101C000008E0026972B10268526802F07F020A704D
:101C1000816A491C8162C18D491E0904090CC18574
:101C200003D019E002685268F1E70168CA6822F03F
:101C30002002CA600168CA6822F48072CA60016822
:101C40004A6922F001024A61202180F83E10016BAE
:101C5000012903D0FFF7EAFB002008BD0021016342
:101C60000168CA6822F01002CA6001680A68D206D8
:101C700002D50A6849680091818DFFF7B9F9EBE751
:101C800070B5044600680169E26821F440511143CF
:101C900001612169A0680843616908432168CA6835
:101CA00041F20C639A430243CA6020684169A26909
:101CB00021F44071114341611E492068884202D1DC
:101CC000FEF7C8FD01E0FEF7B5FD00EBC00101EB3A
:101CD0000012606864218000B2FBF0F3B3FBF1F303
:101CE0006FF018067343B2FBF0F5B2FBF0F605EBAC
:101CF0008305322303EB0515B5FBF1F5B6FBF1F6D1
:101D000005F0F00505EB0615B2FBF0F6B2FBF0F0BE
:101D1000B0FBF1F06FF01802504306EB800003EBCC
:101D20000010B0FBF1F0216800F00F00284488603B
:101D300070BD00000038014081628285C2850021AB
:101D40000164222280F83E2080F83C100168CA68B5
:101D500042F48072CA6001684A6942F001024A6135
:101D60000068C16841F02001C160002070472DE982
:101D7000F041984617460E460446069D1DE0681C35
:101D80001BD02DB1FEF722FCA0EB0800A84214D90D
:101D90002068C16821F4D071C1602068416921F0D8
:101DA00001014161202084F83D0084F83E000020BC
:101DB00084F83C000320BDE8F0812068006836EA22
:101DC000000004D00020B842D9D00020F3E7012061
:101DD000F9E700000148FFF70DB90000600100209D
:101DE0000148FFF707B90000A4010020FEE700004A
:101DF0000FB4054B10B503A9044A029800F028F867
:101E000010BC5DF814FB000009200008140000203D
:101E10000907090E002804DB00F1E02080F8001417
:101E2000704700F00F0000F1E02080F8141D7047AB
:101E300002E008C8121F08C1002AFAD17047704793
:101E4000002001E001C1121F002AFBD170470000F1
:101E50002DE9FF4F8BB09A460F460546002606E057
:101E600025280BD052460D9990476D1C761C28787A
:101E70000028F5D10FB03046BDE8F08F0024A04611
:101E80000122604900E0044315F8013F203B02FABB
:101E900003F00842F7D128782E2817D115F8010F42
:101EA00044F004042A280ED06FF02F022878A0F105
:101EB000300109290AD808EB880102EB410100EB47
:101EC00001086D1CF2E757F8048B6D1C287869280F
:101ED0003ED006DC0028CDD063280BD0642804D186
:101EE00036E0732810D075284BD052460D99904794
:101EF000761C85E017F8040B8DF8000000208DF8A3
:101F00000100E946012003E057F8049B4FF0FF3041
:101F100061074FF0000401D40AE0641C44450DDA67
:101F20008442FADB19F804100029F6D106E0641C9B
:101F30008442FCDB19F804100029F8D1264404E09F
:101F400019F8010B52460D999047641EF8D257E0DC
:101F500001CF4FF00A0B002802DA40422D2102E0A7
:101F6000210504D52B218DF82410012103E0E10780
:101F700005D02021F7E70DF1200908910CE00021A0
:101F8000F9E701CF4FF00A0BF9E75946FEF7F0F8F1
:101F900001F1300209F8012D0028F6D1ADEB09005E
:101FA00000F1200B600701D44FF00108D84502DD95
:101FB000A8EB0B0000E000208046002406E009A802
:101FC0005246005D0D999047641C761C0898844227
:101FD000F5DB04E0302052460D999047761CB8F1AD
:101FE0000001A8F10108F5DC05E019F8010B5246E3
:101FF0000D999047761CBBF10001ABF1010BF4DCAD
:102000006D1C34E70928010013B54FF6FF73012258
:1020100069460248FFF752FA00981CBD6001002093
:10202000FEF7E2FAFFF76EFCFFF7D2FAFFF72EFB9E
:10203000FFF780FBFFF79AFB00210848FEF78AFFB5
:1020400004210648FEF786FF012205490548FFF7EF
:10205000D7F9FEF7B7F8FFF7A9FBFEE71801002054
:1020600001000020A401002000000000000000008A
:10207000010203040607080900000000010203042E
:10208000A02000080000002018000000301E0008FA
:10209000B820000818000020D0050000401E0008ED
:1020A000000000000100000010000000000000001F
:0820B0000024F4000000000010
:04000005080000ED02
:00000001FF
