:020000040800F2
:10000000D80A00200501000883230008A520000865
:1000100081230008B50200085929000800000000EB
:10002000000000000000000000000000B5230008F0
:10003000990400080000000085230008112400082E
:100040001F0100081F0100081F0100081F01000810
:100050001F0100081F0100081F0100081F01000800
:100060001F0100081F0100081F0100081F010008F0
:100070001F0100081F0100081F0100081F010008E0
:100080001F0100081F0100081F0100081F010008D0
:100090001F0100081F0100081F0100081F010008C0
:1000A0001F0100081F0100081F0100081F010008B0
:1000B0001F01000865240008712400081F010008C2
:1000C0001F0100081F0100081F0100081F01000890
:1000D0001F010008412900081F0100084D290008E0
:1000E0001F0100081F0100081F010008DFF810D0E1
:1000F00000F080F800480047952C0008AFF300801E
:10010000D80A00200648804706480047FEE7FEE779
:10011000FEE7FEE7FEE7FEE7FEE7FEE7FEE7FEE7B7
:1001200063240008ED000008202A04DB203A21FAAD
:1001300002F00021704721FA02F3D040C2F1200200
:10014000914008431946704740EA01039B0703D0DA
:1001500009E008C9121F08C0042AFAD203E011F806
:10016000013B00F8013B521EF9D27047D2B201E0C8
:1001700000F8012B491EFBD270470022F6E710B5AC
:1001800013460A4604461946FFF7F0FF204610BD05
:100190002DE9F05F0546002092469B4688460646BC
:1001A000814640241BE02846414647462246FFF749
:1001B000BBFF53465A46C01A914110D31146184608
:1001C000224600F029F82D1A67EB01084F46224617
:1001D0000120002100F020F817EB00094E41201EFD
:1001E000A4F10104DFDC484631462A464346BDE817
:1001F000F09F0000064C074D06E0E06840F0010368
:1002000094E8070098471034AC42F6D3FFF772FF2A
:10021000442E0008642E0008202A04DB203A00FA4D
:1002200002F1002070479140C2F1200320FA03F34D
:10023000194390407047000010B58AB013A004AC79
:100240000068089012A00FC88DE80F0014A30FCB10
:1002500084E80F00032208A9154801F0F4FE4FF4CA
:100260007A74204600F062FB0E2204A9104801F0C7
:10027000EAFE204600F05AFB0D2269460C4801F0C8
:10028000E2FE204600F052FB0AB010BD2B2B2B00E3
:1002900041542B434950434C4F53450D0A00000035
:1002A00041542B4349504D4F44453D300D0A000009
:1002B00094060020FEE70000074800F13001427A72
:1002C0000A70C36900F11802D25C4A70C27A8A705F
:1002D000807AC870704700000400002010B516A096
:1002E00092B00FC80AAC84E80F0017A30EAC0FCB76
:1002F00084E80F00282218A16846FFF725FF252271
:1003000069461F4801F09FFE4FF47A74204600F0C2
:100310000DFB0E220AA91A4801F095FE204600F0B6
:1003200005FB0C220EA9164801F08DFE204600F0B8
:10033000FDFA12B010BD000041542B4349504D4FFF
:1003400044453D310D0A000041542B43495053456B
:100350004E440D0A0000000041542B4349505354B1
:100360004152543D22544350222C223139322E31F5
:1003700036382E312E35222C3530320D0A00000051
:100380009406002010B59AB029A211AB07CA83E8E1
:1003900007002AA12BA2D1E90001CDE917010FCA5C
:1003A00009AC84E80F0024222AA16846FFF7CCFE9E
:1003B00031A214AB07CA83E8070032A00DAC0FC806
:1003C00084E80F00082211A9324801F03CFE4FF4E6
:1003D0007A74204600F0AAFA042217A92D4801F0E9
:1003E00032FE204600F0A2FA0D2209A9294801F0A8
:1003F0002AFE204600F09AFA21226946254801F09B
:1004000022FE42F2107000F091FA0A2214A921484B
:1004100001F019FE204600F089FA0D220DA91D48B1
:1004200001F011FE204600F081FA1AB010BD000064
:1004300041542B5253540D0A0000000041540D0A40
:100440000000000041542B43574D4F44453D310DB2
:100450000A00000041542B43574A41503D22475A5D
:1004600047442D4E6B4869222C22393637383937AC
:100470003833220D0A00000041542B4349465352A1
:100480000D0A000041542B4349504D55583D300D45
:100490000A000000940600207047704770B55A4D5E
:1004A0005A4E286807280CDA00220920326028609A
:1004B0005748027057480168491C0160062900D15D
:1004C0000260554C0821204600F032FB012811D172
:1004D0001021204600F02CFB01280BD120212046C2
:1004E00000F026FB012805D14021204600F020FB2A
:1004F00001287BD00821204600F01AFB80B910218A
:10050000204600F015FB01280AD12021204600F0EA
:100510000FFB28B94021204600F00AFB01286ED0CD
:100520000821204600F004FB88B91021204600F085
:10053000FFFA01280BD12021204600F0F9FA01280A
:1005400005D14021204600F0F3FA012805D008210A
:10055000204600F0EDFA28B114E0BDE8704002201A
:1005600002F0A8B81021204600F0E2FA012809D1D3
:100570002021204600F0DCFA20B94021204600F07E
:10058000D7FAE0B30821204600F0D2FA012810D1B2
:100590001021204600F0CCFA01280AD12021204663
:1005A00000F0C6FA28B94021204600F0C1FA01281F
:1005B00020D00821204600F0BBFA002823D11021CA
:1005C000204600F0B5FA00281DD12021204600F079
:1005D000AFFA002817D14021204600F0A9FA0028E0
:1005E00011D1012030602868082808DBBDE8704080
:1005F00001F0F4BEBDE87040022002F06BB8BDE827
:10060000704000F013B970BD280000202C000020BD
:100610000F00002020000020000C014070B57E4D2E
:100620007E4E286807280CDA0020092130602960F6
:100630007B4908707B490A68521C0A60042A00D171
:100640000860794C0821204600F072FA012811D187
:100650001021204600F06CFA01280BD12021204601
:1006600000F066FA012805D14021204600F060FA2A
:1006700001287CD00821204600F05AFA80B91021C8
:10068000204600F055FA01280AD12021204600F02A
:100690004FFA28B94021204600F04AFA012867D0D5
:1006A0000821204600F044FA88B91021204600F0C5
:1006B0003FFA01280BD12021204600F039FA012809
:1006C00005D14021204600F033FA012805D0082149
:1006D000204600F02DFA28B114E0BDE87040022059
:1006E00001F0E8BF1021204600F022FA50B9202185
:1006F000204600F01DFA28B94021204600F018FAE3
:10070000012835D00821204600F012FA012810D126
:100710001021204600F00CFA01280AD120212046A1
:1007200000F006FA012804D14021204600F000FA2A
:10073000F0B30821204600F0FBF901280FD1102169
:10074000204600F0F5F950B92021204600F0F0F9DC
:10075000012804D14021204600F0EAF940B30821E5
:10076000204600F0E5F990B91021204601E044E070
:100770004CE000F0DDF9012809D12021204600F0ED
:10078000D7F920B94021204600F0D2F980B10821E4
:10079000204600F0CDF9012812D11021204600F0AA
:1007A000C7F901280CD12021204600F0C1F900E052
:1007B00027E028B94021204600F0BAF9012820D0CE
:1007C0000821204600F0B4F9002823D1102120464A
:1007D00000F0AEF900281DD12021204600F0A8F934
:1007E000002817D14021204600F0A2F9002811D19D
:1007F000012030602868082808DBBDE8704001F05F
:10080000EDBDBDE87040022001F064BFBDE870405E
:1008100000F00CB870BD0000280000202C00002063
:100820000F00002020000020000C014010B5064CF5
:100830002088143000B201F037FCB4F90000BDE8A4
:10084000104001F0A1BD00000000002010B590F89C
:1008500021100022022905D00421816380F8202084
:10086000012010BD01680B6823F00E030B600168C6
:100870000B6823F001030B6090F84030C46B01213A
:1008800001FA03F3636080F8211080F820201046FD
:1008900010BD000010B590F821100024022903D0EB
:1008A0000421816301243DE001680A6822F00E0200
:1008B0000A6001680A6822F001020A601A4A0168A7
:1008C000914201D1012121E0174A1432914201D114
:1008D00010211BE0144A2832914201D1891515E0FC
:1008E000114A3C32914201D189140FE00E4A503234
:1008F000914202D14FF4803108E00B4A64329142B8
:1009000002D14FF4801101E04FF08071064A083A9D
:100910005160012180F82110002180F82010416BE6
:1009200001B18847204610BD0800024070B504465A
:1009300000F008F90546601C02D004480078044421
:1009400000F000F9401BA042FAD370BD380000202F
:100950002DE9F84FDFF8B891002409F1040A0AF1F3
:10096000040B23460F270BF1040EC9E00125A54017
:100970002A40AA427DD1674ED1F804C0ACEB0608EC
:10098000B44532D014DCBCF1030F3AD009DCBCF121
:10099000000F2AD0BCF1010F1CD0BCF1020F31D1E5
:1009A0001DE0BCF1110F17D0BCF1120F2AD119E0D4
:1009B000B8F5881F19D006DCB8F5803F15D0B8F51A
:1009C000801F1FD111E0B8F5001F0ED0B8F5041F2D
:1009D00018D10AE0CB6815E0CB681B1D12E0CB688C
:1009E00008330FE0CB680C330CE08B682BB1012B84
:1009F0004FF0080303D0456104E0042302E00561E1
:100A000000E00023FF2A01D8064601E000F10406B9
:100A10004FEA840501D9A5F12005D6F8008007FA30
:100A200005FC28EA0C0803FA05F548EA0508C6F8AB
:100A300000804D68ED0062D5374DAE6946F0010685
:100A4000AE61AD6924F0030605F001050095334D54
:100A500006EB050CDCF80850A607360F07FA06F877
:100A600025EA0805DFF8B880404503D14FF00008BB
:100A700017E044E0DFF8AC80404502D14FF00108B8
:100A80000FE0DFF8A480404502D14FF0020808E0F3
:100A9000DFF89880404502D14FF0030801E04FF0A5
:100AA000040808FA06F848EA0508CCF808804D68FA
:100AB000D9F80060ED034D4601D5164300E096439A
:100AC0002E604D68DAF80060AD03554601D5164337
:100AD00000E096432E604D68DBF80060ED025D4655
:100AE00001D5164300E096432E604D68DEF80060A5
:100AF000AD02754601D5164300E096432E60641C96
:100B00000D682A46E5407FF431AFBDE8F88F00005C
:100B100000040140000011100010024000000140DC
:100B200000080140000C0140001001400014014089
:100B30008068084000D0012070470AB10161704709
:100B40000904FBE701488068704700003800002076
:100B500002488168027811448160704738000020A3
:100B6000074810B5016841F010010160032000F052
:100B700075F8002000F006F800F024F8002010BD01
:100B80000020024070B50D4D04464FF47A7128786C
:100B9000B1FBF0F00A490968B1FBF0F000F0ECFAA3
:100BA00048B9102C07D200222146501E00F036F81A
:100BB00000206C6070BD012070BD00003800002076
:100BC000440000200C4808B5816941F001018161B1
:100BD000816901F001010091C16941F08051C16159
:100BE000C06900F0805000900448416821F0E06145
:100BF00041F00071416008BD00100240000001405A
:100C0000002809DB00F01F0201219140400980000B
:100C100000F1E020C0F8001170470000F0B40E4B66
:100C20001B680C46C3F30223C3F10705042D00D94A
:100C30000425191D072901D2002300E0DB1E01262F
:100C400006FA05F1491E214099409E40761E164045
:100C50003143F0BC01F092BE0CED00E0064900F01B
:100C6000070208684FF6FF03184040EA0220034AD3
:100C700010430860704700000CED00E00000FA052A
:100C80002DE9F0470F46050061D0434E306800F073
:100C90000700B84209D2306820F0070038433060BE
:100CA000306800F00700B84251D128683B4C8107FA
:100CB00012D5400703D5606840F4E0606060287892
:100CC000000703D5606840F4605060606068A96800
:100CD00020F0F000084360602878C00728D06868DA
:100CE000012810D02168022810D0890700292EDAA7
:100CF000616821F0030101436160FFF723FF804633
:100D000041F288390DE021688903EFE78901EDE7B9
:100D1000FFF718FFA0EB0801494502D90320BDE801
:100D2000F0876068696800F00C00B0EB810FEFD1CC
:100D3000306800F00700B8420BD9306820F0070097
:100D400038433060306800F00700B84201D001201D
:100D5000E5E72878400705D56068E96820F4E06099
:100D6000084360602878000706D56068296920F488
:100D7000605040EAC100606000F038F86168084ADD
:100D8000C1F30311515CC840064908600648006879
:100D9000FFF7F8FE0020C2E70020024000100240EA
:100DA0002C2E0008440000203C0000200448054987
:100DB00000684968044AC1F30221515CC840704789
:100DC00044000020001002403C2E00080448054961
:100DD00000684968044AC1F3C221515CC8407047A9
:100DE00044000020001002403C2E000812A185B0F3
:100DF0000FC98DE80F0014A0144A006804905168D0
:100E0000134801F00C03042B10D0082B0ED1C1F3B2
:100E10008343C9031DF803000AD5516804AAC1F32E
:100E20004041515C0A4A5043B0FBF1F005B07047B5
:100E300008494843FAE700000203040506070809C9
:100E40000A0B0C0D0E0F10100102000000100240E2
:100E500000127A0000093D002DE9F84F040070D01F
:100E60002078C04DC00749D06868C0F381000128D0
:100E700007D06868C0F38100022809D16868C00300
:100E800006D52868800339D560680028E7D035E0AA
:100E90006068B0F5803F0BD010B1B0F5A02F11D035
:100EA000286820F480302860286820F4802002E040
:100EB000286840F480302860606890B1FFF742FEF7
:100EC00006460AE0286840F480202860F0E700BF6A
:100ED000FFF738FE801B642873D828688003F7D595
:100EE0000CE0FFF72FFE064605E000BFFFF72AFEE5
:100EF000801B6428F0D828688003F7D420789A4EA5
:100F000080074FF001094FF0000839D5686810F0EC
:100F10000C0F07D06868C0F38100022809D1686807
:100F2000C00306D42868800714D52069012808D199
:100F300010E02069B0B1C6F80090FFF703FE074645
:100F400005E00AE1FFF7FEFDC01B0228C4D82868AF
:100F50008007F7D52868616920F0F80040EAC100F1
:100F600028600DE0C6F80080FFF7ECFD074604E0BE
:100F7000FFF7E8FDC01B022823D828688007F7D4B4
:100F8000207800072CD57948A169D9B1C0F8009024
:100F9000FFF7D8FD074604E0FFF7D4FDC01B022889
:100FA0000FD8686A8007F7D571484FF4FA51006886
:100FB000B0FBF1F0009000BF0098411E0091FAD202
:100FC0000EE080E0C0F80080FFF7BCFD074604E0BB
:100FD000FFF7B8FDC01B022875D8686A8007F7D4F0
:100FE0002078400760D5E8690027C00008D4E86988
:100FF00040F08050E861E869012700F080500090DF
:101000005C480168C90513D40168834641F48071C6
:101010000160FFF797FD824606E000BFFFF792FDF3
:10102000A0EB0A0064284ED8DBF80000C005F5D517
:10103000E06801280AD008B1052813D0286A20F0FA
:1010400001002862286A20F0040002E0286A40F0CB
:1010500001002862E06841F2883B98B1FFF772FD19
:1010600082460BE0286A40F004002862EEE700BFE9
:10107000FFF768FDA0EB0A0159455AD8286A800796
:10108000F6D50CE0FFF75EFD824605E0FFF75AFD5E
:10109000A0EB0A0159454CD8286A8007F6D41FB145
:1010A000E86920F08050E861E06988B36968C1F3BD
:1010B0008101022944D00228C6F8608004D0FFF7DD
:1010C00041FD044638E034E0FFF73CFD074604E00C
:1010D000FFF738FDC01B02282BD828688001F7D401
:1010E000206AB0F5803F05D16868A16820F400301F
:1010F00008436860D4E908010843696821F4741161
:1011000008436860C6F86090FFF71CFD044606E0DF
:1011100025E000BFFFF716FD001B022809D828684C
:101120008001F7D51BE000BFFFF70CFD001B022874
:1011300002D90320BDE8F88F28688001F4D40EE0BE
:101140000128F7D06868226A00F48031914204D106
:10115000616A00F47010884201D00120EAE70020A3
:10116000E8E70000001002400000424280044242D2
:10117000440000200070004010B5401EB0F1807F98
:1011800001D3012010BD4FF0E02460610F216017F2
:1011900001F0F4FB0020A06107202061002010BDB9
:1011A0007047704770B590F83C20012A26D0012482
:1011B00080F83C40022280F83D2003685A689D6810
:1011C00022F070060A6832435A600D4B02689A4258
:1011D00008D0B2F1804F05D00A4B9A4202D00A4B98
:1011E0009A4204D1496825F080031943916080F840
:1011F0003D40002180F83C10084670BD022070BDC3
:10120000002C0140000400400008004010B504001C
:1012100003D094F83D0010B107E0012010BD00207C
:1012200084F83C00204600F01FF8022084F83D00BE
:10123000211D206801F022F9012084F8460084F87D
:101240003E0084F83F0084F8400084F8410084F8B0
:10125000420084F8430084F8440084F8450084F890
:101260003D00002010BD000008B501681048B1F134
:10127000804F14D00F4A914219D1C16941F0040145
:10128000C161C069002200F00400009001211E200D
:10129000FFF7C4FCBDE808401E20FFF7B1BCC169E0
:1012A00041F00101C161C06900F00100009008BD7A
:1012B000001002400008004090F83D10012901D0C4
:1012C00001207047022180F83D100168CA6842F091
:1012D0000102CA6000680B49884208D0B0F1804F13
:1012E00005D00949884202D00849884204D1816862
:1012F00001F00701062903D0016841F001010160F6
:1013000000207047002C014000040040000800400D
:1013100070B5044690F83C00012817D0012584F8E8
:101320003C50022084F83D002068826822F0770259
:1013300022F47F4282600868502830D00DDC2028DB
:101340004DD005DC98B310283BD148E0022070BD99
:10135000302844D0402834D139E0602828D0702883
:1013600006D0B0F5805F2CD0B0F5005F29D10AE03F
:10137000CB68D1E90121206801F0C3F820688168B9
:1013800041F0770109E0CB68D1E90121206801F043
:10139000B8F82068816841F48041816011E0CA6832
:1013A0004968206801F062F95021206807E016E0E2
:1013B000CA684968206801F06AF96021206801F074
:1013C000AAF884F83D50002084F83C0070BDCA683B
:1013D0004968206801F04AF940212068EFE7226857
:1013E00001461046EBE72DE9F0410D46040003D01D
:1013F00094F83D0018B108E00120BDE8F08100201C
:1014000084F83C00204600F041F8022084F83D00BA
:101410002068816844F2070291438160211D2068A1
:1014200001F02CF8226890689169166A2B68AF6900
:10143000034340F20330814341EA0721A868EF6982
:1014400008434FF6FC418843E96840EA072001431E
:1014500028692F6A000140EA0730084369686D690E
:1014600026F0220646EA051529439360226890611A
:1014700054F8460B0162012004F81F09E07520763C
:10148000E0762077A0750020B7E7000000B585B0B2
:101490000021009101910291039100681149884255
:1014A0001ED11148C16941F00201C161C16901F059
:1014B00002010491816941F00401816180696946FA
:1014C00000F004000490C02000900848FFF740FAA4
:1014D000002211461D20FFF7A1FB1D20FFF790FB06
:1014E00005B000BD000400400010024000080140AB
:1014F00070B590F83E60044690F83F5090F8423046
:1015000090F84320022021B104290ED0012E1BD1D6
:1015100014E0012E18D1012B16D184F83E0084F876
:10152000420001220021206820E0012D0CD1012A77
:101530000AD184F83F0084F8430014E0012D03D160
:10154000012B01D1012A01D0012070BD84F83E0099
:1015500084F83F0084F8420084F84300012200210F
:10156000206800F0C1FF01220421206800F0BCFFC8
:101570002068016841F001010160002070BD7047E2
:1015800070B50446006801694FF00005C94389073A
:1015900015D4C168C943890711D4E91E016101202E
:1015A0002077206880698007204602D0FFF7E7FF98
:1015B00004E000F0BDF8204600F04CF925772068E3
:1015C0000169C943490717D4C168C943490713D4FE
:1015D0006FF004010161022020772068806910F417
:1015E000407F204602D0FFF7CAFF04E000F0A0F8D9
:1015F000204600F02FF9257720680169C9430907C3
:1016000016D4C168C943090712D46FF008010161FB
:10161000042020772068C0698007204602D0FFF7A9
:10162000AEFF04E000F084F8204600F013F92577BF
:1016300020680169C943C90617D4C168C943C906EE
:1016400013D46FF010010161082020772068C06971
:1016500010F4407F204602D0FFF791FF04E000F035
:1016600067F8204600F0F6F8257720680169C9433D
:10167000C90708D1C168C943C90704D1891E0161DE
:10168000204600F037F920680169C943090609D4EA
:10169000C168C943090605D46FF080010161204685
:1016A000FFF77EFD20680169C943490609D4C16876
:1016B000C943490605D46FF040010161204600F09E
:1016C00075F920680169C94389060BD4C168C9430B
:1016D000890607D46FF0200101612046BDE8704003
:1016E000FFF75FBD70BD000000B585B0002100911F
:1016F0000191029103910068B0F1804F11D10A4825
:10170000816941F0040181618069694600F004004B
:101710000490032000900220019003900348FFF7FB
:1017200017F905B000BD000000100240000801409C
:10173000704770B5044690F83C000D4601280AD069
:10174000012084F83C0042B1042A18D0082A2AD08B
:101750000C2A4DD139E0022070BD206800F0E4FE73
:101760002068816941F0080181612068816921F068
:1017700004018161206881692A69114311E02068B0
:1017800000F0FAFE2068816941F4006181612068FF
:10179000816921F480618161206881692A6941EA57
:1017A0000221816124E0206800F012FF2068C169F5
:1017B00041F00801C1612068C16921F00401C161E3
:1017C0002068C1692A69114311E0206800F02CFFEC
:1017D0002068C16941F40061C1612068C16921F4D8
:1017E0008061C1612068C1692A6941EA0221C16141
:1017F000002084F83C0070BD10B5040003D094F8BC
:101800003D0010B107E0012010BD002084F83C002D
:10181000204600F01EF8022084F83D00211D2068BB
:1018200000F02CFE012084F8460084F83E0084F885
:101830003F0084F8400084F8410084F8420084F8B6
:10184000430084F8440084F8450084F83D000020FB
:1018500010BD70477047000010B50446022249B120
:1018600004290ED0082913D094F84100012816D07D
:10187000012010BD94F83E000128F9D184F83E20E3
:101880000FE094F83F000128F2D184F83F2008E0EF
:1018900094F840000128EBD184F8402001E084F85E
:1018A00041200122206800F01FFE0F492068884275
:1018B00003D1426C42F4004242642068884208D05E
:1018C000B0F1804F05D00949884202D008498842CA
:1018D00004D1816801F00701062903D0016841F0B5
:1018E00001010160002010BD002C014000040040F7
:1018F0000008004070B52949294D2A4C884240D142
:10190000206A401E20620AD5E06A012807D101F052
:101910005DFA0C21244800F04FFD02202062A06AED
:10192000012802D1606A401E60622868406A0E2267
:1019300080B2E082237B0A2113B1012B05D01BE08A
:10194000A38AC3F57A63034403E0A58AC0F57A63EA
:101950002B44258A05EB4506C6EBC51503EB45135D
:10196000A3F57A639BB2B3FBF2F2B2FBF1F16282B0
:101970006172E27A1144E17200212182A0826182C7
:1019800070BDA842FCD10748217B008A21B1012902
:10199000F6D1401E208270BD401CFBE708060020E7
:1019A000C0050020040000206C050020704770472F
:1019B00070470000F8B5026804461068D1685369A2
:1019C00010F00F0F4FF0000553D003F0010601F4A3
:1019D000907737435FD0C20705D0CA0503D5226C84
:1019E00042F001022264420705D5DA0703D0226CD7
:1019F00042F002022264820705D5DA0703D0226C86
:101A000042F004022264020707D501F020023243AB
:101A100003D0226C42F008022264226C002A34D0E7
:101A2000800604D5880602D5204600F083FE206893
:101A30004069216CC0F38010090700D430B3204600
:101A400000F060FE2068416949061BD5416921F01C
:101A500040014161A06BA8B158494163A06BFEF7FA
:101A600019FF002811D0A06B416B01B0BDE8F04018
:101A7000084783060FD58B060DD52046BDE8F840F4
:101A800000F058BE2046FFF793FFF8BD2046FFF751
:101A90008FFF2564F8BD266B2023012E52D1C60688
:101AA00050D5CE064ED5106850680090506940065B
:101AB0002AD5A16B086840680004000CEAD0A68D06
:101AC0008642E7D9E0858869202818D0D06820F4BC
:101AD0008070D0602068416921F001014161206877
:101AE000416921F04001416184F83E30256320685E
:101AF000C16821F01001C160A06BFEF7A7FEA08DA8
:101B0000E18D401A81B219E0A08DE18D401A81B2B9
:101B1000E08D0028BED00029BCD0D06820F49070A1
:101B2000D0602068426922F00102426184F83E30B0
:101B300025632068C26822F01002C2602046FFF7C9
:101B400036FFF8BD05062BD50D0629D594F83D00C6
:101B50002128F6D1A068B0F5805F01D12069B0B12D
:101B6000206A411C2162216800784860E08C401E98
:101B70000004000CE084E4D12068C16821F08001F9
:101B8000C1602068C16841F04001C160F8BD206AB1
:101B90000088C0F308005060206A801C2062E5E7DE
:101BA0004006F3D54806F1D5D168204621F0400122
:101BB000D16084F83D3000F065FAF8BDF5260008E4
:101BC00070B5040004D094F83D00002510B106E083
:101BD000012070BD84F83C50204600F023F82420FA
:101BE00084F83D002068C16821F40051C16020469E
:101BF00000F0FCFD2068016921F49041016120683A
:101C0000416921F02A0141612068C16841F4005115
:101C1000C1602564202084F83D0084F83E00002047
:101C200070BD000070B586B0002400940194029449
:101C3000039403682E482D4E022103220515B3425A
:101C400026D1836943F480438361836903F480432D
:101C50000493836943F0040383618069254E00F097
:101C6000040004900802CDE9000103926946304661
:101C7000FEF76EFECDE90054694630460294FEF749
:101C800067FE002211462520FEF7C8FF252028E028
:101C9000194EB34227D1C36943F48023C361C3699A
:101CA00003F480230493836943F00803836180690C
:101CB000CDE9005100F00800CDE903200F4D694641
:101CC0002846FEF745FEE814CDE90004694628469B
:101CD0000294FEF73DFE002211462720FEF79EFFEC
:101CE0002720FEF78DFF06B070BD000000380140D0
:101CF000001002400008014000480040000C014074
:101D000090F83E30202B0ED159B152B190F83C30B2
:101D1000012B08D0012380F83C300023036300F03E
:101D2000C1BD012070470220704700002DE9F0413D
:101D30000068684988427DD1674C684A6078401CD9
:101D4000C1B261700A44A07802F8010CE378002661
:101D50006BB1012B6ED12179614DE1B16179072918
:101D600043D2DFE801F03437393B3D3F41000A28D8
:101D700014D112F8020C0D28FAD112F8030C4B28DA
:101D8000F6D112F8040C4F28F2D156A000F0E6FD6F
:101D9000524959A005E010B101280AD08EE04F4900
:101DA00056A000F0DBFDFF214C48FEF7E6F9667017
:101DB00084E012F8020C1528F0D10121217169721A
:101DC0002872474889022030FEF7D7F976E02A7B4F
:101DD000E2810AE0287008E0A87306E0287304E0B6
:101DE000687302E0A87200E0E872491E6171E1893F
:101DF0004FF0060819B1E2791AB98A1EE271E27948
:101E0000CAB1374AA17920325054491CA171E779EF
:101E1000012F0AD1FF2131486A60FEF7AEF96670E2
:101E2000267184F80580A671E6817F1EE77120790E
:101E300068B143E04BE0022940D1FF212748FEF77B
:101E40009CF96670267184F80580A671E681287871
:101E50002072452802D1686800786073A8466A7AC3
:101E6000297A27A000F07AFDA97A2DA000F076FD4E
:101E7000E97A2FA000F072FD297B31A000F06EFD01
:101E8000697B33A000F06AFDA97B35A000F066FDF8
:101E9000297836A000F062FD287B801E85B20027DD
:101EA0000AE000BFD8F804003946C25D33A000F054
:101EB00055FD6D1EADB27F1C002DF3D1A670BDE89F
:101EC000F04105490122891C3148FFF719BFBDE8DF
:101ED000F081000000480040040000204C00002079
:101EE0004C01002052656365646174616C656E74B9
:101EF000683A25640A00000025730A002573000073
:101F0000544D4964656E745B305D3A25780A544DD2
:101F10004964656E745B315D3A25780A0000000003
:101F2000504964656E745B305D3A25780A000000A4
:101F3000504964656E745B315D3A25780A00000093
:101F40006C656E74685B305D3A25780A00000000AD
:101F50006C656E74685B315D3A25780A000000009C
:101F6000554964656E743A25780A000066756E5F9F
:101F7000636F64653A25780A000000004144552EDD
:101F8000646174615B25645D3A25780A0000000095
:101F9000940600202DE9F843044690F83D001F46C2
:101FA00016460D4620284CD1C5B1BEB194F83C0070
:101FB000012846D0012084F83C004FF00008C4F806
:101FC0004080212084F83D00FEF7BCFDA6848146B8
:101FD000E684A068B0F5805F03D004E00120BDE88E
:101FE000F883206928B12E465FF0000584F83C8014
:101FF0000EE00026FAE78021204600F06EFCA0B932
:10200000AEB116F8010B21684860E08C401EE084F8
:10201000E08C4B464FF0000200970028EBD14FF0C8
:102020004001204600F059FC30B10320D7E735F8D5
:10203000020BC0F30800E6E7202084F83D000020F2
:10204000CDE70220CBE790F83D30202B18D1A9B185
:10205000A2B190F83C30012B12D001628284C2847C
:1020600000210164212280F83D2080F83C100068A6
:10207000C16841F08001C1600020704701207047B5
:102080000220704700680449884204D101220349B4
:102090000348FFF735BE70470048004006000020A7
:1020A00094060020FEE7000070B5084D04460022AB
:1020B00004212846FEF741FD012208212846FEF7AB
:1020C0003CFD03480068446370BD00000008014007
:1020D000780500202DE9F04186B0002428480094BE
:1020E000019402940394816941F010018161816936
:1020F00001F010010491816941F020018161816941
:1021000001F020010491816941F00401816181693C
:1021100001F004010491816941F008018161806945
:10212000184F00F008004FF4005504900022294693
:102130003846FEF702FDDFF8508000223C21404681
:10214000FEF7FBFC0095022601250396CDE901541C
:1021500069463846FEF7FCFB3C20CDE90005CDE999
:10216000024669464046FEF7F3FB78208DE83100D1
:1021700069460648FEF7ECFB06B0BDE8F0810000BA
:10218000001002400010014000080140000C014016
:1021900010B58EB000240794089409940A940B9407
:1021A0001C2168460C94FDF7E8FF22484FF080415F
:1021B00001604721C0E9011440F2E731C0E903148E
:1021C0008461FFF723F808B1FEF767F94FF48050F8
:1021D000079007A91748FFF79BF808B1FEF75DF9CC
:1021E0001448FFF709FB08B1FEF757F90B940BA948
:1021F00010480C94FEF7D6FF08B1FEF74EF96020A8
:10220000CDE900040294002269460A480494FFF7CD
:1022100090FA08B1FEF741F9042269460548FFF734
:1022200088FA08B1FEF739F90248FFF75DFA0EB0F7
:1022300010BD00007805002010B58CB02421684640
:10224000FDF79BFF00241648099414490A94C0E93D
:10225000001449F64041C0E9024104618461032051
:10226000CDE900040120CDE902040494CDE9054044
:10227000079469460A480894FFF7B5F808B1FEF7D5
:102280000CF9099409A906480A94FEF78BFF002867
:1022900001D0FEF702F90CB010BD000000040040B0
:1022A000C005002010B586B00024184800940194A1
:1022B00002940394049414490594016041F61F416B
:1022C000C0E9011442F20F71C0E903148021816159
:1022D000FEF79CFF08B1FEF7E0F84FF48050009045
:1022E00069460A48FFF714F808B1FEF7D6F80494D7
:1022F00004A906480594FEF755FF002801D0FEF713
:10230000CCF806B010BD0000000800400806002010
:102310000C4810B50A4901604FF4E13141600021D9
:1023200081600C22C160C0E904128161C161FFF7C4
:1023300047FC002803D0BDE81040FEF7AEB810BD42
:1023400000380140500600200C4810B50A490160D1
:102350004FF4E1314160002181600C22C160C0E98D
:1023600004128161C161FFF72BFC002803D0BDE896
:102370001040FEF792B810BD0048004094060020BF
:10238000FEE770477047000070B5084D0446002214
:1023900010212846FEF7D1FB012220212846FEF716
:1023A000CCFB03480068846370BD00000008014056
:1023B00078050020704700008AB210B50146054834
:1023C000FFF741FEBDE81040012203490148FFF735
:1023D00097BC0000940600200600002010B50B4CAE
:1023E000002204212046FEF7A8FB002208212046F7
:1023F000FEF7A3FB002210212046FEF79EFB20469D
:102400000022BDE810402021FEF797BB00080140E4
:10241000FEF79EBB30B58FB028216846FDF7ADFEB4
:1024200014210AA8FDF7A9FE01210804CDE9001036
:102430000024029402250491CDE907504FF4E010E6
:1024400009906846FEF708FD0F20CDE90A056802ED
:10245000CDE90C4002210AA80E94FEF711FC0FB042
:1024600030BD70470148FFF78BB80000C005002061
:102470000148FFF785B8000008060020F0B50268A3
:10248000164B174C174D4FF08047984205D0B84275
:1024900003D0A04201D0A84203D122F070064A68BE
:1024A0003243984205D0B84203D0A04201D0A8429E
:1024B00003D122F44074CA6822434C6922F080029E
:1024C000224302608A68C2620A688262984201D12D
:1024D0000969016301214161F0BD0000002C014048
:1024E000000400400008004010B501F01F03012166
:1024F000046A99408C430462016A9A401143016264
:1025000010BD10B5846842EA032224F47F440A43D4
:102510002243826010BD826822F070020A4342F0BA
:10252000070181607047000030B5026A22F00102A5
:102530000262026A4368846924F073050C682C43C4
:1025400022F002058A682A430A4DA8420BD122F0E4
:102550000805CA6823F440732A434D6922F0040237
:102560001D438B692B434360846149684163026268
:1025700030BD0000002C014030B5026A22F010028C
:102580000262026A436884690D6824F4E64444EAFE
:1025900005248D6822F0200242EA05120B4DA84264
:1025A0000ED1CD6822F0800242EA05124D6923F473
:1025B000406343EA85038D6922F0400243EA8503C4
:1025C0004360846149688163026230BD002C014030
:1025D00030B5026A22F480720262036A4268C469FA
:1025E00023F4007324F073050C682C438D6843EAD0
:1025F00005230C4DA8420ED1CD6823F4006343EAB5
:1026000005234D6922F4405242EA05128D6923F4F4
:10261000806342EA05124260C4614968C163036293
:1026200030BD0000002C014030B5026A22F4805217
:102630000262046A4268C3690D6823F4E64343EA10
:1026400005238D6824F4005444EA0534064DA8425D
:1026500004D14D6922F4804242EA85124260C3618E
:1026600049680164046230BD002C014010B5036A62
:10267000046A24F001040462846924F0F00444EA4A
:10268000021423F00A020A438461026210BD10B5ED
:10269000036A23F0100303628369046A23F470431E
:1026A00043EA023224F0A00343EA0111826101628D
:1026B00010BD00000146064810B5B0F900004143C6
:1026C0000CB2FFF7F1FC2046BDE81040FFF75CBEFE
:1026D0000000002010B5064C21884143143108B297
:1026E000FFF7E2FCB4F90000BDE81040FFF74CBE74
:1026F0000000002010B5406A0021C185C184FFF7A9
:1027000057F910BD0168CA6822F49072CA60016866
:102710004A6922F001024A61016B012904D1016872
:10272000CA6822F01002CA60202180F83E10002101
:102730000163704708B590F83E10222901D00220AD
:1027400008BD82684FF480539A4201D1016921B1DA
:10275000816A9A421BD04AB10AE00268816A5268D3
:10276000C2F308020A80816A891C08E0026972B11A
:102770000268526802F07F020A70816A491C816215
:10278000C18D491E0904090CC18503D019E00268F6
:102790005268F1E70168CA6822F02002CA60016845
:1027A000CA6822F48072CA6001684A6922F0010294
:1027B0004A61202180F83E10016B012903D0FFF708
:1027C000B5FA002008BD002101630168CA6822F043
:1027D0001002CA6001680A68D20602D50A68496810
:1027E0000091818DFFF7E3F8EBE7000070B5044638
:1027F00000680169E26821F44051114301612169D7
:10280000A0680843616908432168CA6841F20C6303
:102810009A430243CA6020684169A26921F4407169
:10282000114341611E492068884202D1FEF7CEFA69
:1028300001E0FEF7BBFA00EBC00101EB001260689B
:1028400064218000B2FBF0F3B3FBF1F36FF01806E4
:102850007343B2FBF0F5B2FBF0F605EB83053223D0
:1028600003EB0515B5FBF1F5B6FBF1F605F0F00548
:1028700005EB0615B2FBF0F6B2FBF0F0B0FBF1F0A1
:102880006FF01802504306EB800003EB0010B0FB22
:10289000F1F0216800F00F002844886070BD00004E
:1028A0000038014081628285C285002101642222B4
:1028B00080F83E2080F83C100168CA6842F48072BB
:1028C000CA6001684A6942F001024A610068C16851
:1028D00041F02001C160002070472DE9F041984689
:1028E00017460E460446069D1DE0681C1BD02DB100
:1028F000FEF728F9A0EB0800A84214D92068C168A7
:1029000021F4D071C1602068416921F00101416169
:10291000202084F83D0084F83E00002084F83C002C
:102920000320BDE8F0812068006836EA000004D08A
:102930000020B842D9D00020F3E70120F9E70000D9
:102940000148FFF737B80000500600200148FFF7A4
:1029500031B8000094060020FEE700000FB4054BDC
:1029600010B503A9044A029800F028F810BC5DF8DD
:1029700014FB00007D2C0008480000200907090E08
:10298000002804DB00F1E02080F80014704700F01C
:102990000F0000F1E02080F8141D704702E008C825
:1029A000121F08C1002AFAD170477047002001E0C9
:1029B00001C1121F002AFBD1704700002DE9FF4F13
:1029C0008DB09B460F460446002606E025280BD016
:1029D0005A460F999047641C761C20780028F5D140
:1029E00011B03046BDE8F08F0025A8460122984975
:1029F00000E0054314F8013F203B02FA03F00842CF
:102A0000F7D120782E2817D114F8010F45F00405CE
:102A10002A280ED06FF02F022078A0F1300109296A
:102A20000AD808EB880102EB410100EB0108641CA5
:102A3000F2E757F8048B641C20786C280DD004DC76
:102A40004C2812D06A2811D104E074280DD07A28BD
:102A50000CD10AE045F4001507E0617845F48015D3
:102A6000814202D1641C05F58015641C2078692818
:102A700044D008DC0028B3D0582867D063280FD092
:102A8000642808D13AE0702865D0732812D07528E0
:102A90005AD078285AD05A460F999047761CD5E0DC
:102AA00017F8040B8DF8000000208DF80100E946AE
:102AB000012003E057F8049B4FF0FF3069074FF007
:102AC000000501D40AE06D1C45450DDA8542FADBAC
:102AD00019F805100029F6D106E06D1C8542FCDBD3
:102AE00019F805100029F8D12E4404E019F8010B5B
:102AF0005A460F9990476D1EF8D2A7E00A20002190
:102B0000CDE90801C5F3025002280CD001CFC1174E
:102B1000021E71F100020CDA0023D0EB030063EB1C
:102B200001012D2208E0FF1D27F00707F7E8020149
:102B3000EEE72A0504D52B228DF8282001223CE05F
:102B4000EA073AD02022F7E70A2000E0102000210F
:102B5000CDE9080107E01020002145F00405CDE98A
:102B600008014FF00808C5F30250022810D001CF29
:102B700000214FF0000A2A0720D52278702A0DD0B4
:102B8000DDE908C38CF0100C5CEA030C0CD015E0F6
:102B9000FF1D27F00707F7E80201EAE740228DF85A
:102BA00028204FF0010A0CE050EA010306D0302340
:102BB0008DF828308DF82920022292462278582A52
:102BC00004D024A20DF120090B9209E026A2F9E716
:102BD000DDE90823FDF7DCFA0B9B9B5C09F8013D5E
:102BE00050EA0102F4D1ADEB0900203008906807EB
:102BF00001D44FF001080899884503DD0898A8EB37
:102C0000000000E000208046002506E00AA85A46A1
:102C1000405D0F9990476D1C761C5545F6DB04E02E
:102C200030205A460F999047761CB8F10001A8F160
:102C30000108F5DC05E019F8010B5A460F99904799
:102C4000761C0899481E08900029F4DC641CC4E630
:102C50000928010030313233343536373839616272
:102C60006364656600000000303132333435363736
:102C700038394142434445460000000013B54FF641
:102C8000FF73012269460248FFF784F900981CBDD2
:102C9000500600202DE9F041FDF762FFFFF7BAFB77
:102CA000FFF718FAFFF774FAFFF732FBFFF74CFB58
:102CB000FFF7C2FAFFF7F6FAFDF764FBFDF70EFB2C
:102CC00000212848FEF7C8FD04212648FEF7C4FD70
:102CD0003C212548FEF70CFC234D2868406A234C14
:102CE000A0822348FEF7E8FA0122A11C2148FFF741
:102CF00007F8012221462048FFF702F80126E67076
:102D00000220206209204627606228680068C0F31C
:102D100000102073207A462807D0472811D0452874
:102D200018D04328F1D12772EFE7E662A07A012894
:102D300004D00228E9D1FDF771FCE6E7FDF7AEFB10
:102D4000E3E70020E070FFF749FBFDF775FA00208C
:102D5000BDE8F081607BA17A8842E4D1FFF73EFBB9
:102D6000D3E7000078050020C00500200400002003
:102D700008060020940600205006002010B586B0FA
:102D800015228DF8002001228DF8012000228DF8F7
:102D9000022006238DF803208DF804308DF80520DD
:102DA000009CFF230494BDF804404122ADF8144078
:102DB0000DF1080C8DF816308DF8082003919CE871
:102DC0001E0080E81E0006B010BD00001FB5FDF714
:102DD00073FA14496846FFF7D1FF9DE81E001248B8
:102DE00080E81E0000F58261027A0A70427A4A7019
:102DF000827A8A70C27ACA70427B0A71027B4A71F7
:102E0000827B8A710278CA71426812780A724268BB
:102E100052784A72426892788A724068C078C87262
:102E20001FBD0000340000205C01002000000000F5
:102E3000000000000102030406070809000000006A
:102E400001020304642E0008000000204C00000072
:102E50009C290008B02E00084C0000208C0A0000BD
:102E6000AC2900088C0000000100000000060000F2
:102E70000000020000000000000000000000000050
:102E8000050002010000000002000000090000002F
:102E90000000000000000000000000000100000031
:102EA00010000000000000000024F40000000000FA
:04000005080000ED02
:00000001FF
