:020000040800F2
:10000000000A0020050100083F1B000865190008D0
:100010003D1B0008B5020008792000080000000020
:10002000000000000000000000000000431B00086A
:100030007504000800000000411B00088D1B00082B
:100040001F0100081F0100081F0100081F01000810
:100050001F0100081F0100081F0100081F01000800
:100060001F0100081F0100081F0100081F010008F0
:100070001F0100081F0100081F0100081F010008E0
:100080001F0100081F0100081F0100081F010008D0
:100090001F0100081F0100081F0100081F010008C0
:1000A0001F0100081F0100081F0100081F010008B0
:1000B0001F0100081F0100081F0100081F010008A0
:1000C0001F0100081F0100081F0100081F01000890
:1000D0001F010008612000081F0100086D200008B2
:1000E0001F0100081F0100081F010008DFF810D0E1
:1000F00000F080F800480047B5230008AFF3008007
:10010000000A00200648804706480047FEE7FEE751
:10011000FEE7FEE7FEE7FEE7FEE7FEE7FEE7FEE7B7
:10012000DF1B0008ED000008202A04DB203A21FA3A
:1001300002F00021704721FA02F3D040C2F1200200
:10014000914008431946704740EA01039B0703D0DA
:1001500009E008C9121F08C0042AFAD203E011F806
:10016000013B00F8013B521EF9D27047D2B201E0C8
:1001700000F8012B491EFBD270470022F6E710B5AC
:1001800013460A4604461946FFF7F0FF204610BD05
:100190002DE9F05F0546002092469B4688460646BC
:1001A000814640241BE02846414647462246FFF749
:1001B000BBFF53465A46C01A914110D31146184608
:1001C000224600F029F82D1A67EB01084F46224617
:1001D0000120002100F020F817EB00094E41201EFD
:1001E000A4F10104DFDC484631462A464346BDE817
:1001F000F09F0000064C074D06E0E06840F0010368
:1002000094E8070098471034AC42F6D3FFF772FF2A
:100210005024000870240008202A04DB203A00FA49
:1002200002F1002070479140C2F1200320FA03F34D
:10023000194390407047000010B58AB013A004AC79
:100240000068089012A00FC88DE80F0014A30FCB10
:1002500084E80F00032208A9154801F054FB4FF46D
:100260007A74204600F078F90E2204A9104801F0B3
:100270004AFB204600F070F90D2269460C4801F057
:1002800042FB204600F068F90AB010BD2B2B2B0072
:1002900041542B434950434C4F53450D0A00000035
:1002A00041542B4349504D4F44453D300D0A000009
:1002B000BC050020FEE7000010B516A092B00FC8E4
:1002C0000AAC84E80F0017A30EAC0FCB84E80F0034
:1002D000282218A16846FFF737FF252269461F48E4
:1002E00001F011FB4FF47A74204600F035F90E222C
:1002F0000AA91A4801F007FB204600F02DF90C224C
:100300000EA9164801F0FFFA204600F025F912B0B8
:1003100010BD000041542B4349504D4F44453D31E1
:100320000D0A000041542B43495053454E440D0AD9
:100330000000000041542B43495053544152543D56
:1003400022544350222C223139322E3136382E316C
:100350002E37222C3530320D0A000000BC0500205B
:1003600010B59AB029A211AB07CA83E807002AA1E9
:100370002BA2D1E90001CDE917010FCA09AC84E82D
:100380000F0024222AA16846FFF7DEFE31A214AB3B
:1003900007CA83E8070032A00DAC0FC884E80F003D
:1003A000082211A9324801F0AEFA4FF47A742046BF
:1003B00000F0D2F8042217A92D4801F0A4FA204633
:1003C00000F0CAF80D2209A9294801F09CFA20463C
:1003D00000F0C2F821226946254801F094FA42F261
:1003E000107000F0B9F80A2214A9214801F08BFA24
:1003F000204600F0B1F80D220DA91D4801F083FA46
:10040000204600F0A9F81AB010BD000041542B524C
:1004100053540D0A0000000041540D0A0000000072
:1004200041542B43574D4F44453D310D0A000000C8
:1004300041542B43574A41503D22475A47442D4E81
:100440006B4869222C223936373839373833220D38
:100450000A00000041542B43494653520D0A000044
:1004600041542B4349504D55583D300D0A00000072
:10047000BC0500207047704710B590F8211000228D
:10048000022905D00421816380F82020012010BDBD
:1004900001680B6823F00E030B6001680B6823F002
:1004A00001030B6090F84030C46B012101FA03F3A3
:1004B000636080F8211080F82020104610BD0000F5
:1004C00010B590F821100024022903D00421816383
:1004D00001243DE001680A6822F00E020A6001680A
:1004E0000A6822F001020A601A4A0168914201D1A9
:1004F000012121E0174A1432914201D110211BE061
:10050000144A2832914201D1891515E0114A3C3232
:10051000914201D189140FE00E4A5032914202D12A
:100520004FF4803108E00B4A6432914202D14FF41B
:10053000801101E04FF08071064A083A51600121B4
:1005400080F82110002180F82010416B01B188470C
:10055000204610BD0800024070B5044600F004F9C2
:100560000546601C02D004480078044400F0FCF802
:10057000401BA042FAD370BD0C0000202DE9F84FBB
:10058000DFF8B891002409F1040A0AF1040B2346AC
:100590000F270BF1040EC9E00125A5402A40AA420D
:1005A0007DD1674ED1F804C0ACEB0608B44532D01B
:1005B00014DCBCF1030F3AD009DCBCF1000F2AD0E7
:1005C000BCF1010F1CD0BCF1020F31D11DE0BCF118
:1005D000110F17D0BCF1120F2AD119E0B8F5881FFE
:1005E00019D006DCB8F5803F15D0B8F5801F1FD1B3
:1005F00011E0B8F5001F0ED0B8F5041F18D10AE0BD
:10060000CB6815E0CB681B1D12E0CB6808330FE008
:10061000CB680C330CE08B682BB1012B4FF0080337
:1006200003D0456104E0042302E0056100E00023FB
:10063000FF2A01D8064601E000F104064FEA8405CE
:1006400001D9A5F12005D6F8008007FA05FC28EAB3
:100650000C0803FA05F548EA0508C6F800804D685D
:10066000ED0062D5374DAE6946F00106AE61AD6969
:1006700024F0030605F001050095334D06EB050C4B
:10068000DCF80850A607360F07FA06F825EA080531
:10069000DFF8B880404503D14FF0000817E044E090
:1006A000DFF8AC80404502D14FF001080FE0DFF8E1
:1006B000A480404502D14FF0020808E0DFF898809E
:1006C000404502D14FF0030801E04FF0040808FA5A
:1006D00006F848EA0508CCF808804D68D9F80060AB
:1006E000ED034D4601D5164300E096432E604D685C
:1006F000DAF80060AD03554601D5164300E0964395
:100700002E604D68DBF80060ED025D4601D51643B2
:1007100000E096432E604D68DEF80060AD0275463D
:1007200001D5164300E096432E60641C0D682A46EE
:10073000E5407FF431AFBDE8F88F000000040140D0
:1007400000001110001002400000014000080140AC
:10075000000C014000100140001401400AB1016189
:1007600070470904FBE700000148806870470000FB
:100770000C000020024881680278114481607047B3
:100780000C000020074810B5016841F0100101601D
:10079000032000F075F8002000F006F800F024F8BF
:1007A000002010BD0020024070B50D4D04464FF4EE
:1007B0007A712878B1FBF0F00A490968B1FBF0F0D2
:1007C00000F0ECFA48B9102C07D200222146501E46
:1007D00000F036F800206C6070BD012070BD000094
:1007E0000C000020180000200C4808B5816941F079
:1007F00001018161816901F001010091C16941F04C
:100800008051C161C06900F0805000900448416887
:1008100021F0E06141F00071416008BD001002402C
:1008200000000140002809DB00F01F020121914077
:100830004009800000F1E020C0F80011704700007E
:10084000F0B40E4B1B680C46C3F30223C3F107053B
:10085000042D00D90425191D072901D2002300E029
:10086000DB1E012606FA05F1491E214099409E40F3
:10087000761E16403143F0BC01F010BC0CED00E0D8
:10088000064900F0070208684FF6FF03184040EAE7
:100890000220034A10430860704700000CED00E09E
:1008A0000000FA052DE9F0470F46050061D0434EE0
:1008B000306800F00700B84209D2306820F0070025
:1008C00038433060306800F00700B84251D12868E2
:1008D0003B4C810712D5400703D5606840F4E060C7
:1008E00060602878000703D5606840F4605060605D
:1008F0006068A96820F0F000084360602878C007AD
:1009000028D06868012810D02168022810D08907F3
:1009100000292EDA616821F0030101436160FFF7CD
:1009200023FF804641F288390DE021688903EFE713
:100930008901EDE7FFF718FFA0EB0801494502D94F
:100940000320BDE8F0876068696800F00C00B0EB38
:10095000810FEFD1306800F00700B8420BD9306842
:1009600020F0070038433060306800F00700B842DC
:1009700001D00120E5E72878400705D56068E968DF
:1009800020F4E060084360602878000706D56068BE
:10099000296920F4605040EAC100606000F038F836
:1009A0006168084AC1F30311515CC84006490860F8
:1009B00006480068FFF7F8FE0020C2E7002002406A
:1009C0000010024038240008180000201000002009
:1009D0000448054900684968044AC1F30221515C92
:1009E000C84070471800002000100240482400084A
:1009F0000448054900684968044AC1F3C221515CB2
:100A0000C840704718000020001002404824000829
:100A100012A185B00FC98DE80F0014A0144A006818
:100A200004905168134801F00C03042B10D0082BDC
:100A30000ED1C1F38343C9031DF803000AD55168E1
:100A400004AAC1F34041515C0A4A5043B0FBF1F0A3
:100A500005B0704708494843FAE70000020304055F
:100A6000060708090A0B0C0D0E0F101001020000FA
:100A70000010024000127A0000093D002DE9F84FF5
:100A8000040070D02078C04DC00749D06868C0F31A
:100A90008100012807D06868C0F38100022809D1CD
:100AA0006868C00306D52868800339D560680028C7
:100AB000E7D035E06068B0F5803F0BD010B1B0F5FD
:100AC000A02F11D0286820F480302860286820F4F6
:100AD000802002E0286840F480302860606890B18F
:100AE000FFF742FE06460AE0286840F480202860AE
:100AF000F0E700BFFFF738FE801B642873D8286832
:100B00008003F7D50CE0FFF72FFE064605E000BF97
:100B1000FFF72AFE801B6428F0D828688003F7D4EA
:100B200020789A4E80074FF001094FF0000839D520
:100B3000686810F00C0F07D06868C0F381000228C5
:100B400009D16868C00306D42868800714D52069D5
:100B5000012808D110E02069B0B1C6F80090FFF775
:100B600003FE074605E00AE1FFF7FEFDC01B022871
:100B7000C4D828688007F7D52868616920F0F80094
:100B800040EAC10028600DE0C6F80080FFF7ECFDE8
:100B9000074604E0FFF7E8FDC01B022823D82868B9
:100BA0008007F7D4207800072CD57948A169D9B1FE
:100BB000C0F80090FFF7D8FD074604E0FFF7D4FD2A
:100BC000C01B02280FD8686A8007F7D571484FF418
:100BD000FA510068B0FBF1F0009000BF0098411E90
:100BE0000091FAD20EE080E0C0F80080FFF7BCFD73
:100BF000074604E0FFF7B8FDC01B022875D8686AF5
:100C00008007F7D42078400760D5E8690027C00046
:100C100008D4E86940F08050E861E869012700F0F5
:100C2000805000905C480168C90513D40168834670
:100C300041F480710160FFF797FD824606E000BF36
:100C4000FFF792FDA0EB0A0064284ED8DBF8000005
:100C5000C005F5D5E06801280AD008B1052813D0F1
:100C6000286A20F001002862286A20F0040002E0CF
:100C7000286A40F001002862E06841F2883B98B1A0
:100C8000FFF772FD82460BE0286A40F004002862FC
:100C9000EEE700BFFFF768FDA0EB0A0159455AD8FF
:100CA000286A8007F6D50CE0FFF75EFD824605E076
:100CB000FFF75AFDA0EB0A0159454CD8286A800776
:100CC000F6D41FB1E86920F08050E861E06988B38C
:100CD0006968C1F38101022944D00228C6F8608006
:100CE00004D0FFF741FD044638E034E0FFF73CFD57
:100CF000074604E0FFF738FDC01B02282BD8286800
:100D00008001F7D4206AB0F5803F05D16868A168FA
:100D100020F4003008436860D4E90801084369689A
:100D200021F4741108436860C6F86090FFF71CFD59
:100D3000044606E025E000BFFFF716FD001B022871
:100D400009D828688001F7D51BE000BFFFF70CFD2C
:100D5000001B022802D90320BDE8F88F2868800113
:100D6000F4D40EE00128F7D06868226A00F48031DC
:100D7000914204D1616A00F47010884201D00120D0
:100D8000EAE70020E8E700000010024000004242CD
:100D900080044242180000200070004010B5401E40
:100DA000B0F1807F01D3012010BD4FF0E0246061DD
:100DB0000F21601701F072F90020A0610720206167
:100DC000002010BD70B590F83C20012A26D00124E7
:100DD00080F83C40022280F83D2003685A689D68F4
:100DE00022F070060A6832435A600D4B02689A423C
:100DF00008D0B2F1804F05D00A4B9A4202D00A4B7C
:100E00009A4204D1496825F080031943916080F823
:100E10003D40002180F83C10084670BD022070BDA6
:100E2000002C0140000400400008004010B5040000
:100E300003D094F83D0010B107E0012010BD002060
:100E400084F83C00204600F01FF8022084F83D00A2
:100E5000211D206800F0C4FE012084F8460084F8BB
:100E60003E0084F83F0084F8400084F8410084F894
:100E7000420084F8430084F8440084F8450084F874
:100E80003D00002010BD000008B50068B0F1804FA3
:100E900008D10548C16941F00101C161C06900F094
:100EA0000100009008BD00000010024070B504462B
:100EB00090F83C00012817D0012584F83C5002200E
:100EC00084F83D002068826822F0770222F47F4295
:100ED00082600868502830D00DDC20284DD005DC19
:100EE00098B310283BD148E0022070BD302844D090
:100EF000402834D139E0602828D0702806D0B0F5D9
:100F0000805F2CD0B0F5005F29D10AE0CB68D1E931
:100F10000121206800F0A7FE2068816841F0770178
:100F200009E0CB68D1E90121206800F09CFE20682F
:100F3000816841F48041816011E0CA684968206895
:100F400000F046FF5021206807E016E0CA684968B3
:100F5000206800F04EFF6021206800F08EFE84F8CB
:100F60003D50002084F83C0070BDCA684968206884
:100F700000F02EFF40212068EFE72268014610466E
:100F8000EBE7000000B585B00021009101910291CE
:100F900003910068B0F1804F11D10A48816941F096
:100FA000040181618069694600F004000490032017
:100FB00000900220019003900348FFF7DFFA05B08C
:100FC00000BD0000001002400008014070B504465A
:100FD00090F83C000D4601280AD0012084F83C001E
:100FE00042B1042A18D0082A2AD00C2A4DD139E05F
:100FF000022070BD206800F049FE2068816941F040
:10100000080181612068816921F004018161206803
:1010100081692A69114311E0206800F05FFE2068B1
:10102000816941F4006181612068816921F48061F6
:101030008161206881692A6941EA0221816124E095
:10104000206800F077FE2068C16941F00801C161A5
:101050002068C16921F00401C1612068C1692A6961
:10106000114311E0206800F091FE2068C16941F44D
:101070000061C1612068C16921F48061C16120689B
:10108000C1692A6941EA0221C161002084F83C005B
:1010900070BD10B5040003D094F83D0010B107E016
:1010A000012010BD002084F83C00204600F01EF80E
:1010B000022084F83D00211D206800F091FD0120F0
:1010C00084F8460084F83E0084F83F0084F840002D
:1010D00084F8410084F8420084F8430084F8440016
:1010E00084F8450084F83D00002010BD70470000E2
:1010F00010B50446022249B104290ED0082913D0A4
:1011000094F84100012816D0012010BD94F83E004B
:101110000128F9D184F83E200FE094F83F0001281F
:10112000F2D184F83F2008E094F840000128EBD188
:1011300084F8402001E084F841200122206800F07A
:1011400085FD0F492068884203D1426C42F4004279
:1011500042642068884208D0B0F1804F05D0094928
:10116000884202D00849884204D1816801F0070111
:10117000062903D0016841F001010160002010BD83
:10118000002C0140000400400008004070477047F8
:10119000F8B5026804461068D168536910F00F0F63
:1011A0004FF0000553D003F0010601F49077374368
:1011B0005FD0C20705D0CA0503D5226C42F00102F8
:1011C0002264420705D5DA0703D0226C42F00202FE
:1011D0002264820705D5DA0703D0226C42F00402AC
:1011E0002264020707D501F02002324303D0226CAB
:1011F00042F008022264226C002A34D0800604D512
:10120000880602D5204600F026FE20684069216C41
:10121000C0F38010090700D430B3204600F003FE6D
:101220002068416949061BD5416921F040014161AF
:10123000A06BA8B158494163A06BFFF741F90028A2
:1012400011D0A06B416B01B0BDE8F04008478306A8
:101250000FD58B060DD52046BDE8F84000F0FBBD4C
:101260002046FFF794FFF8BD2046FFF790FF256466
:10127000F8BD266B2023012E52D1C60650D5CE06CE
:101280004ED5106850680090506940062AD5A16B71
:10129000086840680004000CEAD0A68D8642E7D9B1
:1012A000E0858869202818D0D06820F48070D0604C
:1012B0002068416921F0010141612068416921F004
:1012C0004001416184F83E3025632068C16821F007
:1012D0001001C160A06BFFF7CFF8A08DE18D401A1F
:1012E00081B219E0A08DE18D401A81B2E08D002815
:1012F000BED00029BCD0D06820F49070D0602068A7
:10130000426922F00102426184F83E302563206880
:10131000C26822F01002C2602046FFF737FFF8BD16
:1013200005062BD50D0629D594F83D002128F6D1C8
:10133000A068B0F5805F01D12069B0B1206A411C7E
:101340002162216800784860E08C401E0004000C97
:10135000E084E4D12068C16821F08001C160206888
:10136000C16841F04001C160F8BD206A0088C0F347
:1013700008005060206A801C2062E5E74006F3D533
:101380004806F1D5D168204621F04001D16084F8AB
:101390003D3000F0D7FAF8BD171E000870B5040004
:1013A00004D094F83D00002510B106E0012070BD86
:1013B00084F83C50204600F023F8242084F83D00B7
:1013C0002068C16821F40051C160204600F09EFDF4
:1013D0002068016921F4904101612068416921F090
:1013E0002A0141612068C16841F40051C16025644F
:1013F000202084F83D0084F83E00002070BD0000ED
:1014000070B586B00024009401940294039403689C
:101410002E482D4E022103220515B34226D18369A1
:1014200043F480438361836903F4804304938369B5
:1014300043F0040383618069254E00F004000490AA
:101440000802CDE90001039269463046FFF796F89D
:10145000CDE90054694630460294FFF78FF8002228
:1014600011462520FFF7ECF9252028E0194EB3425C
:1014700027D1C36943F48023C361C36903F4802384
:101480000493836943F0080383618069CDE90051C7
:1014900000F00800CDE903200F4D69462846FFF70C
:1014A0006DF8E814CDE90004694628460294FFF778
:1014B00065F8002211462720FFF7C2F92720FFF721
:1014C000B1F906B070BD00000038014000100240C4
:1014D0000008014000480040000C01402DE9F84F91
:1014E000044690F83E009A4616460D46202853D1F1
:1014F000FDB1F6B194F83C0001284DD0012084F8EC
:101500003C0000272764222084F83E002763FFF771
:101510002BF9A6858146E685A0684FF480584045A2
:1015200001D1206940B12E465FF0000584F83C707F
:1015300027E00120BDE8F88F0026F7E74B460022A0
:1015400020212046CDF800A000F057FD08B103206F
:10155000F0E726B1A06840451BD038B108E020680C
:101560004068C0F3080025F8020B07E0206980B14D
:101570002068406800F07F0006F8010BE08D401EF7
:10158000E085E08D0028D9D1202084F83E0000209D
:10159000D0E720684068EFE70220CBE790F83E30C4
:1015A000202B0ED159B152B190F83C30012B08D00C
:1015B000012380F83C300023036300F003BD0120C9
:1015C00070470220704700002DE9F04100686E4925
:1015D000884272D16D4C6078401CC2B26C48627017
:1015E0001044A17800F8011CE37800266BB1012BB0
:1015F00063D12279674DEAB16079072844D2DFE8E8
:1016000000F035383A3C3E4042000A2915D110F826
:10161000021C0D29FAD110F8031C4B29F6D110F841
:10162000040C4F28F2D111465BA000F027FD584969
:101630005EA005E011B101290AD099E054495CA0EF
:1016400000F01CFDFF215248FEF797FD66708FE009
:1016500010F8020C1528F0D101212171697228724D
:101660004C4889021030FEF788FD81E02A7B2281F8
:101670000AE0297008E0A97306E0297304E06973A1
:1016800002E0A97200E0E972401E6071208908B191
:10169000821EE271E2794FF006086AB33D4FA079ED
:1016A00010373954401CA07142A000F0E7FCE079EB
:1016B00001281BD16F60002707E062E068683946A7
:1016C000C25D3FA000F0DAFC7F1C2089801E8742AB
:1016D000F4DB35A000F0D2FCFF212D48FEF74DFDD4
:1016E0006670267184F80580A6712681E079401E17
:1016F000E071207960B13BE0022839D1FF21244814
:10170000FEF73BFD6670267184F80580A671268180
:10171000A8466A7A297A2FA000F0B0FCA97A35A0F1
:1017200000F0ACFCE97A37A000F0A8FC297B39A0D6
:1017300000F0A4FC697B3BA000F0A0FCA97B3DA0CD
:1017400000F09CFC29783EA000F098FC287B801ECD
:1017500087B200250AE000BFD8F804002946425DA0
:1017600017A000F08BFC7F1EBFB26D1C002FF3D1C1
:10177000A670BDE8F04105490122891C3448FFF7F5
:101780000DBFBDE8F08100000048004000000020CF
:1017900020000020200100205265636564617461AF
:1017A0006C656E74683A25640A00000025730A00AF
:1017B0002573000075335F527863683A257800001E
:1017C0004144552E646174615B25645D3A25780A55
:1017D00000000000544D4964656E745B305D3A252D
:1017E000780A544D4964656E745B315D3A25780A18
:1017F00000000000504964656E745B305D3A2578E6
:101800000A000000504964656E745B315D3A2578CA
:101810000A0000006C656E74685B305D3A25780ADA
:10182000000000006C656E74685B315D3A25780AD3
:1018300000000000554964656E743A25780A00007E
:1018400066756E5F636F64653A25780A0000000074
:10185000BC0500202DE9F843044690F83D001F46E2
:1018600016460D4620284CD1C5B1BEB194F83C00B7
:10187000012846D0012084F83C004FF00008C4F84D
:101880004080212084F83D00FEF76EFFA68481464B
:10189000E684A068B0F5805F03D004E00120BDE8D5
:1018A000F883206928B12E465FF0000584F83C805B
:1018B0000EE00026FAE78021204600F09EFBA0B94A
:1018C000AEB116F8010B21684860E08C401EE08440
:1018D000E08C4B464FF0000200970028EBD14FF010
:1018E0004001204600F089FB30B10320D7E735F8EE
:1018F000020BC0F30800E6E7202084F83D0000203A
:10190000CDE70220CBE790F83D30202B18D1A9B1CC
:10191000A2B190F83C30012B12D001628284C284C3
:1019200000210164212280F83D2080F83C100068ED
:10193000C16841F08001C1600020704701207047FC
:101940000220704700680449884204D101220349FB
:101950000348FFF723BE7047004800400200002004
:10196000BC050020FEE700002DE9F04186B0002410
:1019700028480094019402940394816941F0100175
:101980008161816901F010010491816941F02001B8
:101990008161816901F020010491816941F00401B4
:1019A0008161816901F004010491816941F00801BC
:1019B00081618069184F00F008004FF400550490D1
:1019C000002229463846FEF7C9FEDFF85080002283
:1019D0003C214046FEF7C2FE0095022601250396F3
:1019E000CDE9015469463846FEF7C8FD3C20CDE9F3
:1019F0000005CDE9024669464046FEF7BFFD782066
:101A0000CDE90004694606480294FEF7B7FD06B02A
:101A1000BDE8F081001002400010014000080140C4
:101A2000000C014010B58EB000240794089409946E
:101A30000A940B941C2168460C94FEF79EFB2248E6
:101A40004FF0804101604721C0E9011440F2E731C5
:101A5000C0E903148461FFF7E9F908B1FEF70BFD53
:101A60004FF48050079007A91748FFF71FFA08B1F5
:101A7000FEF701FD1448FFF70CFB08B1FEF7FBFC75
:101A80000B940BA910480C94FFF79CF908B1FEF7D2
:101A9000F2FC6020CDE900040294002269460A4865
:101AA0000494FFF793FA08B1FEF7E5FC04226946B7
:101AB0000548FFF78BFA08B1FEF7DDFC0248FFF797
:101AC00061FA0EB010BD0000300500200C4810B5C2
:101AD0000A4901604FF4E1314160002181600C222C
:101AE000C160C0E904128161C161FFF757FC0028A1
:101AF00003D0BDE81040FEF7BEBC10BD0038014069
:101B0000780500200C4810B50A4901604FF4E13116
:101B10004160002181600C22C160C0E90412816132
:101B2000C161FFF73BFC002803D0BDE81040FEF781
:101B3000A2BC10BD00480040BC050020FEE7704775
:101B4000704770471FB50AA30FCB8DE80F000E2218
:101B500069460B48FFF7D7FE42F21070FEF7FCFC17
:101B6000084B012208490648FFF7B8FC1FBD0000DA
:101B700068656C6C6F207365727665722100000079
:101B8000BC050020A086010002000020FEF7F2BD87
:101B900030B58FB028216846FEF7EFFA14210AA865
:101BA000FEF7EBFA01210804CDE9001000240294AD
:101BB00002250491CDE907504FF4E01009906846E2
:101BC000FEF75CFF0F20CDE90A056802CDE90C4065
:101BD00002210AA80E94FEF765FE0FB030BD7047D3
:101BE000F0B50268164B174C174D4FF080479842DE
:101BF00005D0B84203D0A04201D0A84203D122F0C0
:101C000070064A683243984205D0B84203D0A042D9
:101C100001D0A84203D122F44074CA6822434C691F
:101C200022F08002224302608A68C2620A688262ED
:101C3000984201D10969016301214161F0BD0000B1
:101C4000002C0140000400400008004010B501F0E5
:101C50001F030121046A99408C430462016A9A407F
:101C60001143016210BD10B5846842EA032224F4D6
:101C70007F440A432243826010BD826822F07002D2
:101C80000A4342F0070181607047000030B5026AE4
:101C900022F001020262026A4368846924F073053B
:101CA0000C682C4322F002058A682A430A4DA84298
:101CB0000BD122F00805CA6823F440732A434D690A
:101CC00022F004021D438B692B4343608461496801
:101CD0004163026230BD0000002C014030B5026A51
:101CE00022F010020262026A436884690D6824F4DB
:101CF000E64444EA05248D6822F0200242EA0512F7
:101D00000B4DA8420ED1CD6822F0800242EA0512A6
:101D10004D6923F4406343EA85038D6922F0400254
:101D200043EA85034360846149688163026230BD90
:101D3000002C014030B5026A22F480720262036A0C
:101D40004268C46923F4007324F073050C682C43C3
:101D50008D6843EA05230C4DA8420ED1CD6823F4CB
:101D6000006343EA05234D6922F4405242EA05121A
:101D70008D6923F4806342EA05124260C4614968B8
:101D8000C163036230BD0000002C014030B5026A1F
:101D900022F480520262046A4268C3690D6823F427
:101DA000E64343EA05238D6824F4005444EA0534ED
:101DB000064DA84204D14D6922F4804242EA8512C0
:101DC0004260C36149680164046230BD002C014077
:101DD00010B5036A046A24F001040462846924F0E3
:101DE000F00444EA021423F00A020A438461026206
:101DF00010BD10B5036A23F0100303628369046AFF
:101E000023F4704343EA023224F0A00343EA0111B1
:101E10008261016210BD10B5406A0021C185C18494
:101E2000FFF7B5F910BD0168CA6822F49072CA6064
:101E300001684A6922F001024A61016B012904D15B
:101E40000168CA6822F01002CA60202180F83E10A2
:101E500000210163704708B590F83E10222901D097
:101E6000022008BD82684FF480539A4201D1016973
:101E700021B1816A9A421BD04AB10AE00268816AA4
:101E80005268C2F308020A80816A891C08E002696C
:101E900072B10268526802F07F020A70816A491CBE
:101EA0008162C18D491E0904090CC18503D019E066
:101EB00002685268F1E70168CA6822F02002CA602D
:101EC0000168CA6822F48072CA6001684A6922F017
:101ED00001024A61202180F83E10016B012903D0E4
:101EE000FFF772FB002008BD002101630168CA688A
:101EF00022F01002CA6001680A68D20602D50A6898
:101F000049680091818DFFF741F9EBE770B5044610
:101F100000680169E26821F44051114301612169BF
:101F2000A0680843616908432168CA6841F20C63EC
:101F30009A430243CA6020684169A26921F4407152
:101F4000114341611E492068884202D1FEF750FDCD
:101F500001E0FEF73DFD00EBC00101EB00126068FF
:101F600064218000B2FBF0F3B3FBF1F36FF01806CD
:101F70007343B2FBF0F5B2FBF0F605EB83053223B9
:101F800003EB0515B5FBF1F5B6FBF1F605F0F00531
:101F900005EB0615B2FBF0F6B2FBF0F0B0FBF1F08A
:101FA0006FF01802504306EB800003EB0010B0FB0B
:101FB000F1F0216800F00F002844886070BD000037
:101FC0000038014081628285C2850021016422229D
:101FD00080F83E2080F83C100168CA6842F48072A4
:101FE000CA6001684A6942F001024A610068C1683A
:101FF00041F02001C160002070472DE9F041984672
:1020000017460E460446069D1DE0681C1BD02DB1E8
:10201000FEF7AAFBA0EB0800A84214D92068C1680B
:1020200021F4D071C1602068416921F00101416152
:10203000202084F83D0084F83E00002084F83C0015
:102040000320BDE8F0812068006836EA000004D073
:102050000020B842D9D00020F3E70120F9E70000C2
:102060000148FFF795B80000780500200148FFF708
:102070008FB80000BC050020FEE700000FB4054B40
:1020800010B503A9044A029800F028F810BC5DF8C6
:1020900014FB00009D2300081C0000200907090E06
:1020A000002804DB00F1E02080F80014704700F005
:1020B0000F0000F1E02080F8141D704702E008C80E
:1020C000121F08C1002AFAD170477047002001E0B2
:1020D00001C1121F002AFBD1704700002DE9FF4FFC
:1020E0008DB09B460F460446002606E025280BD0FF
:1020F0005A460F999047641C761C20780028F5D129
:1021000011B03046BDE8F08F0025A846012298495D
:1021100000E0054314F8013F203B02FA03F00842B7
:10212000F7D120782E2817D114F8010F45F00405B7
:102130002A280ED06FF02F022078A0F13001092953
:102140000AD808EB880102EB410100EB0108641C8E
:10215000F2E757F8048B641C20786C280DD004DC5F
:102160004C2812D06A2811D104E074280DD07A28A6
:102170000CD10AE045F4001507E0617845F48015BC
:10218000814202D1641C05F58015641C2078692801
:1021900044D008DC0028B3D0582867D063280FD07B
:1021A000642808D13AE0702865D0732812D07528C9
:1021B0005AD078285AD05A460F999047761CD5E0C5
:1021C00017F8040B8DF8000000208DF80100E94697
:1021D000012003E057F8049B4FF0FF3069074FF0F0
:1021E000000501D40AE06D1C45450DDA8542FADB95
:1021F00019F805100029F6D106E06D1C8542FCDBBC
:1022000019F805100029F8D12E4404E019F8010B43
:102210005A460F9990476D1EF8D2A7E00A20002178
:10222000CDE90801C5F3025002280CD001CFC11737
:10223000021E71F100020CDA0023D0EB030063EB05
:1022400001012D2208E0FF1D27F00707F7E8020132
:10225000EEE72A0504D52B228DF8282001223CE048
:10226000EA073AD02022F7E70A2000E010200021F8
:10227000CDE9080107E01020002145F00405CDE973
:1022800008014FF00808C5F30250022810D001CF12
:1022900000214FF0000A2A0720D52278702A0DD09D
:1022A000DDE908C38CF0100C5CEA030C0CD015E0DF
:1022B000FF1D27F00707F7E80201EAE740228DF843
:1022C00028204FF0010A0CE050EA010306D0302329
:1022D0008DF828308DF82920022292462278582A3B
:1022E00004D024A20DF120090B9209E026A2F9E7FF
:1022F000DDE90823FDF74CFF0B9B9B5C09F8013DD2
:1023000050EA0102F4D1ADEB0900203008906807D3
:1023100001D44FF001080899884503DD0898A8EB1F
:10232000000000E000208046002506E00AA85A468A
:10233000405D0F9990476D1C761C5545F6DB04E017
:1023400030205A460F999047761CB8F10001A8F149
:102350000108F5DC05E019F8010B5A460F99904782
:10236000761C0899481E08900029F4DC641CC4E619
:10237000092801003031323334353637383961625B
:10238000636465660000000030313233343536371F
:1023900038394142434445460000000013B54FF62A
:1023A000FF73012269460248FFF754FA00981CBDEA
:1023B0007805002010B5FEF7E5F9FFF7E9FBFFF718
:1023C000D3FAFFF72FFBFFF781FBFFF79BFB002101
:1023D0001548FEF78DFE04211348FEF789FE012201
:1023E00012491348FFF7DAF810490122891E1148F3
:1023F000FFF7D4F8FDF7B4FFFDF75EFF0B4C0120AB
:10240000A41EE070FFF79EFB207830B1074901223F
:10241000891E0848FFF7C2F8F4E70020E070FDF7D6
:102420000BFF002010BD000030050020020000203E
:10243000BC0500207805002000000000000000001E
:10244000010203040607080900000000010203045A
:10245000702400080000002020000000BC200008BC
:102460009024000820000020E0090000CC20000893
:102470000100000000060000000000000100000054
:1024800010000000000000000024F4000000000024
:04000005080000ED02
:00000001FF
